{
  "contracts/NYCAKE.sol": {
    "NYCAKEDividendTracker": {
      "abi": [
        {
          "inputs": [],
          "stateMutability": "nonpayable",
          "type": "constructor"
        },
        {
          "anonymous": false,
          "inputs": [
            {
              "indexed": true,
              "internalType": "address",
              "name": "owner",
              "type": "address"
            },
            {
              "indexed": true,
              "internalType": "address",
              "name": "spender",
              "type": "address"
            },
            {
              "indexed": false,
              "internalType": "uint256",
              "name": "value",
              "type": "uint256"
            }
          ],
          "name": "Approval",
          "type": "event"
        },
        {
          "anonymous": false,
          "inputs": [
            {
              "indexed": true,
              "internalType": "address",
              "name": "account",
              "type": "address"
            },
            {
              "indexed": false,
              "internalType": "uint256",
              "name": "amount",
              "type": "uint256"
            },
            {
              "indexed": true,
              "internalType": "bool",
              "name": "automatic",
              "type": "bool"
            }
          ],
          "name": "Claim",
          "type": "event"
        },
        {
          "anonymous": false,
          "inputs": [
            {
              "indexed": true,
              "internalType": "uint256",
              "name": "newValue",
              "type": "uint256"
            },
            {
              "indexed": true,
              "internalType": "uint256",
              "name": "oldValue",
              "type": "uint256"
            }
          ],
          "name": "ClaimWaitUpdated",
          "type": "event"
        },
        {
          "anonymous": false,
          "inputs": [
            {
              "indexed": true,
              "internalType": "address",
              "name": "to",
              "type": "address"
            },
            {
              "indexed": false,
              "internalType": "uint256",
              "name": "weiAmount",
              "type": "uint256"
            }
          ],
          "name": "DividendWithdrawn",
          "type": "event"
        },
        {
          "anonymous": false,
          "inputs": [
            {
              "indexed": true,
              "internalType": "address",
              "name": "from",
              "type": "address"
            },
            {
              "indexed": false,
              "internalType": "uint256",
              "name": "weiAmount",
              "type": "uint256"
            }
          ],
          "name": "DividendsDistributed",
          "type": "event"
        },
        {
          "anonymous": false,
          "inputs": [
            {
              "indexed": true,
              "internalType": "address",
              "name": "account",
              "type": "address"
            }
          ],
          "name": "ExcludeFromDividends",
          "type": "event"
        },
        {
          "anonymous": false,
          "inputs": [
            {
              "indexed": true,
              "internalType": "address",
              "name": "previousOwner",
              "type": "address"
            },
            {
              "indexed": true,
              "internalType": "address",
              "name": "newOwner",
              "type": "address"
            }
          ],
          "name": "OwnershipTransferred",
          "type": "event"
        },
        {
          "anonymous": false,
          "inputs": [
            {
              "indexed": true,
              "internalType": "address",
              "name": "from",
              "type": "address"
            },
            {
              "indexed": true,
              "internalType": "address",
              "name": "to",
              "type": "address"
            },
            {
              "indexed": false,
              "internalType": "uint256",
              "name": "value",
              "type": "uint256"
            }
          ],
          "name": "Transfer",
          "type": "event"
        },
        {
          "inputs": [],
          "name": "CAKE",
          "outputs": [
            {
              "internalType": "address",
              "name": "",
              "type": "address"
            }
          ],
          "stateMutability": "view",
          "type": "function"
        },
        {
          "inputs": [
            {
              "internalType": "address",
              "name": "_owner",
              "type": "address"
            }
          ],
          "name": "accumulativeDividendOf",
          "outputs": [
            {
              "internalType": "uint256",
              "name": "",
              "type": "uint256"
            }
          ],
          "stateMutability": "view",
          "type": "function"
        },
        {
          "inputs": [
            {
              "internalType": "address",
              "name": "owner",
              "type": "address"
            },
            {
              "internalType": "address",
              "name": "spender",
              "type": "address"
            }
          ],
          "name": "allowance",
          "outputs": [
            {
              "internalType": "uint256",
              "name": "",
              "type": "uint256"
            }
          ],
          "stateMutability": "view",
          "type": "function"
        },
        {
          "inputs": [
            {
              "internalType": "address",
              "name": "spender",
              "type": "address"
            },
            {
              "internalType": "uint256",
              "name": "amount",
              "type": "uint256"
            }
          ],
          "name": "approve",
          "outputs": [
            {
              "internalType": "bool",
              "name": "",
              "type": "bool"
            }
          ],
          "stateMutability": "nonpayable",
          "type": "function"
        },
        {
          "inputs": [
            {
              "internalType": "address",
              "name": "account",
              "type": "address"
            }
          ],
          "name": "balanceOf",
          "outputs": [
            {
              "internalType": "uint256",
              "name": "",
              "type": "uint256"
            }
          ],
          "stateMutability": "view",
          "type": "function"
        },
        {
          "inputs": [],
          "name": "claimWait",
          "outputs": [
            {
              "internalType": "uint256",
              "name": "",
              "type": "uint256"
            }
          ],
          "stateMutability": "view",
          "type": "function"
        },
        {
          "inputs": [],
          "name": "decimals",
          "outputs": [
            {
              "internalType": "uint8",
              "name": "",
              "type": "uint8"
            }
          ],
          "stateMutability": "view",
          "type": "function"
        },
        {
          "inputs": [
            {
              "internalType": "address",
              "name": "spender",
              "type": "address"
            },
            {
              "internalType": "uint256",
              "name": "subtractedValue",
              "type": "uint256"
            }
          ],
          "name": "decreaseAllowance",
          "outputs": [
            {
              "internalType": "bool",
              "name": "",
              "type": "bool"
            }
          ],
          "stateMutability": "nonpayable",
          "type": "function"
        },
        {
          "inputs": [
            {
              "internalType": "uint256",
              "name": "amount",
              "type": "uint256"
            }
          ],
          "name": "distributeCAKEDividends",
          "outputs": [],
          "stateMutability": "nonpayable",
          "type": "function"
        },
        {
          "inputs": [
            {
              "internalType": "address",
              "name": "_owner",
              "type": "address"
            }
          ],
          "name": "dividendOf",
          "outputs": [
            {
              "internalType": "uint256",
              "name": "",
              "type": "uint256"
            }
          ],
          "stateMutability": "view",
          "type": "function"
        },
        {
          "inputs": [
            {
              "internalType": "address",
              "name": "account",
              "type": "address"
            }
          ],
          "name": "excludeFromDividends",
          "outputs": [],
          "stateMutability": "nonpayable",
          "type": "function"
        },
        {
          "inputs": [
            {
              "internalType": "address",
              "name": "",
              "type": "address"
            }
          ],
          "name": "excludedFromDividends",
          "outputs": [
            {
              "internalType": "bool",
              "name": "",
              "type": "bool"
            }
          ],
          "stateMutability": "view",
          "type": "function"
        },
        {
          "inputs": [
            {
              "internalType": "address",
              "name": "_account",
              "type": "address"
            }
          ],
          "name": "getAccount",
          "outputs": [
            {
              "internalType": "address",
              "name": "account",
              "type": "address"
            },
            {
              "internalType": "int256",
              "name": "index",
              "type": "int256"
            },
            {
              "internalType": "int256",
              "name": "iterationsUntilProcessed",
              "type": "int256"
            },
            {
              "internalType": "uint256",
              "name": "withdrawableDividends",
              "type": "uint256"
            },
            {
              "internalType": "uint256",
              "name": "totalDividends",
              "type": "uint256"
            },
            {
              "internalType": "uint256",
              "name": "lastClaimTime",
              "type": "uint256"
            },
            {
              "internalType": "uint256",
              "name": "nextClaimTime",
              "type": "uint256"
            },
            {
              "internalType": "uint256",
              "name": "secondsUntilAutoClaimAvailable",
              "type": "uint256"
            }
          ],
          "stateMutability": "view",
          "type": "function"
        },
        {
          "inputs": [
            {
              "internalType": "uint256",
              "name": "index",
              "type": "uint256"
            }
          ],
          "name": "getAccountAtIndex",
          "outputs": [
            {
              "internalType": "address",
              "name": "",
              "type": "address"
            },
            {
              "internalType": "int256",
              "name": "",
              "type": "int256"
            },
            {
              "internalType": "int256",
              "name": "",
              "type": "int256"
            },
            {
              "internalType": "uint256",
              "name": "",
              "type": "uint256"
            },
            {
              "internalType": "uint256",
              "name": "",
              "type": "uint256"
            },
            {
              "internalType": "uint256",
              "name": "",
              "type": "uint256"
            },
            {
              "internalType": "uint256",
              "name": "",
              "type": "uint256"
            },
            {
              "internalType": "uint256",
              "name": "",
              "type": "uint256"
            }
          ],
          "stateMutability": "view",
          "type": "function"
        },
        {
          "inputs": [],
          "name": "getLastProcessedIndex",
          "outputs": [
            {
              "internalType": "uint256",
              "name": "",
              "type": "uint256"
            }
          ],
          "stateMutability": "view",
          "type": "function"
        },
        {
          "inputs": [],
          "name": "getNumberOfTokenHolders",
          "outputs": [
            {
              "internalType": "uint256",
              "name": "",
              "type": "uint256"
            }
          ],
          "stateMutability": "view",
          "type": "function"
        },
        {
          "inputs": [
            {
              "internalType": "address",
              "name": "spender",
              "type": "address"
            },
            {
              "internalType": "uint256",
              "name": "addedValue",
              "type": "uint256"
            }
          ],
          "name": "increaseAllowance",
          "outputs": [
            {
              "internalType": "bool",
              "name": "",
              "type": "bool"
            }
          ],
          "stateMutability": "nonpayable",
          "type": "function"
        },
        {
          "inputs": [
            {
              "internalType": "address",
              "name": "",
              "type": "address"
            }
          ],
          "name": "lastClaimTimes",
          "outputs": [
            {
              "internalType": "uint256",
              "name": "",
              "type": "uint256"
            }
          ],
          "stateMutability": "view",
          "type": "function"
        },
        {
          "inputs": [],
          "name": "lastProcessedIndex",
          "outputs": [
            {
              "internalType": "uint256",
              "name": "",
              "type": "uint256"
            }
          ],
          "stateMutability": "view",
          "type": "function"
        },
        {
          "inputs": [],
          "name": "minimumTokenBalanceForDividends",
          "outputs": [
            {
              "internalType": "uint256",
              "name": "",
              "type": "uint256"
            }
          ],
          "stateMutability": "view",
          "type": "function"
        },
        {
          "inputs": [],
          "name": "name",
          "outputs": [
            {
              "internalType": "string",
              "name": "",
              "type": "string"
            }
          ],
          "stateMutability": "view",
          "type": "function"
        },
        {
          "inputs": [],
          "name": "owner",
          "outputs": [
            {
              "internalType": "address",
              "name": "",
              "type": "address"
            }
          ],
          "stateMutability": "view",
          "type": "function"
        },
        {
          "inputs": [
            {
              "internalType": "uint256",
              "name": "gas",
              "type": "uint256"
            }
          ],
          "name": "process",
          "outputs": [
            {
              "internalType": "uint256",
              "name": "",
              "type": "uint256"
            },
            {
              "internalType": "uint256",
              "name": "",
              "type": "uint256"
            },
            {
              "internalType": "uint256",
              "name": "",
              "type": "uint256"
            }
          ],
          "stateMutability": "nonpayable",
          "type": "function"
        },
        {
          "inputs": [
            {
              "internalType": "address payable",
              "name": "account",
              "type": "address"
            },
            {
              "internalType": "bool",
              "name": "automatic",
              "type": "bool"
            }
          ],
          "name": "processAccount",
          "outputs": [
            {
              "internalType": "bool",
              "name": "",
              "type": "bool"
            }
          ],
          "stateMutability": "nonpayable",
          "type": "function"
        },
        {
          "inputs": [],
          "name": "renounceOwnership",
          "outputs": [],
          "stateMutability": "nonpayable",
          "type": "function"
        },
        {
          "inputs": [
            {
              "internalType": "address payable",
              "name": "account",
              "type": "address"
            },
            {
              "internalType": "uint256",
              "name": "newBalance",
              "type": "uint256"
            }
          ],
          "name": "setBalance",
          "outputs": [],
          "stateMutability": "nonpayable",
          "type": "function"
        },
        {
          "inputs": [],
          "name": "symbol",
          "outputs": [
            {
              "internalType": "string",
              "name": "",
              "type": "string"
            }
          ],
          "stateMutability": "view",
          "type": "function"
        },
        {
          "inputs": [],
          "name": "totalDividendsDistributed",
          "outputs": [
            {
              "internalType": "uint256",
              "name": "",
              "type": "uint256"
            }
          ],
          "stateMutability": "view",
          "type": "function"
        },
        {
          "inputs": [],
          "name": "totalSupply",
          "outputs": [
            {
              "internalType": "uint256",
              "name": "",
              "type": "uint256"
            }
          ],
          "stateMutability": "view",
          "type": "function"
        },
        {
          "inputs": [
            {
              "internalType": "address",
              "name": "recipient",
              "type": "address"
            },
            {
              "internalType": "uint256",
              "name": "amount",
              "type": "uint256"
            }
          ],
          "name": "transfer",
          "outputs": [
            {
              "internalType": "bool",
              "name": "",
              "type": "bool"
            }
          ],
          "stateMutability": "nonpayable",
          "type": "function"
        },
        {
          "inputs": [
            {
              "internalType": "address",
              "name": "sender",
              "type": "address"
            },
            {
              "internalType": "address",
              "name": "recipient",
              "type": "address"
            },
            {
              "internalType": "uint256",
              "name": "amount",
              "type": "uint256"
            }
          ],
          "name": "transferFrom",
          "outputs": [
            {
              "internalType": "bool",
              "name": "",
              "type": "bool"
            }
          ],
          "stateMutability": "nonpayable",
          "type": "function"
        },
        {
          "inputs": [
            {
              "internalType": "address",
              "name": "newOwner",
              "type": "address"
            }
          ],
          "name": "transferOwnership",
          "outputs": [],
          "stateMutability": "nonpayable",
          "type": "function"
        },
        {
          "inputs": [
            {
              "internalType": "uint256",
              "name": "newClaimWait",
              "type": "uint256"
            }
          ],
          "name": "updateClaimWait",
          "outputs": [],
          "stateMutability": "nonpayable",
          "type": "function"
        },
        {
          "inputs": [],
          "name": "withdrawDividend",
          "outputs": [],
          "stateMutability": "nonpayable",
          "type": "function"
        },
        {
          "inputs": [
            {
              "internalType": "address",
              "name": "_owner",
              "type": "address"
            }
          ],
          "name": "withdrawableDividendOf",
          "outputs": [
            {
              "internalType": "uint256",
              "name": "",
              "type": "uint256"
            }
          ],
          "stateMutability": "view",
          "type": "function"
        },
        {
          "inputs": [
            {
              "internalType": "address",
              "name": "_owner",
              "type": "address"
            }
          ],
          "name": "withdrawnDividendOf",
          "outputs": [
            {
              "internalType": "uint256",
              "name": "",
              "type": "uint256"
            }
          ],
          "stateMutability": "view",
          "type": "function"
        }
      ],
      "evm": {
        "bytecode": {
          "linkReferences": {
            "contracts/IterableMapping.sol": {
              "IterableMapping": [
                {
                  "length": 20,
                  "start": 2998
                },
                {
                  "length": 20,
                  "start": 3285
                },
                {
                  "length": 20,
                  "start": 3451
                },
                {
                  "length": 20,
                  "start": 4936
                },
                {
                  "length": 20,
                  "start": 5073
                },
                {
                  "length": 20,
                  "start": 5730
                }
              ]
            }
          },
          "object": "60c06040527f0e09fabb73bd3ade0a17ecc321fd13a19e81ce82000000000000000000000000608052610e10601155692a5a058fc295ed00000060a0523480156200004957600080fd5b5060408051808201825260178082527f4e5943414b455f4469766964656e645f547261636b657200000000000000000060208084018281528551808701909652928552840152815191929183918391620000a6916003916200012b565b508051620000bc9060049060208401906200012b565b5050506000620000d16200012760201b60201c565b600580546001600160a01b0319166001600160a01b038316908117909155604051919250906000907f8be0079c531659141344cd1fd0a4f28419497f9722a3daafe3b4186f6b6457e0908290a3505050620001c7565b3390565b828054600181600116156101000203166002900490600052602060002090601f016020900481019282601f106200016e57805160ff19168380011785556200019e565b828001600101855582156200019e579182015b828111156200019e57825182559160200191906001019062000181565b50620001ac929150620001b0565b5090565b5b80821115620001ac5760008155600101620001b1565b60805160601c60a051612140620001f86000398061102552806110f2525080610a965280611abe52506121406000f3fe608060405234801561001057600080fd5b506004361061021c5760003560e01c806385a6b3ae11610125578063bc4c4b37116100ad578063e7841ec01161007c578063e7841ec01461067b578063e98030c714610683578063f2fde38b146106a0578063fbcbc0f1146106c6578063ffb2c479146106ec5761021c565b8063bc4c4b37146105eb578063be10b61414610619578063dd62ed3e14610621578063e30443bc1461064f5761021c565b8063a457c2d7116100f4578063a457c2d71461052a578063a8b9d24014610556578063a9059cbb1461057c578063aafd847a146105a8578063ba72a955146105ce5761021c565b806385a6b3ae146104ec5780638da5cb5b146104f457806391b89fba146104fc57806395d89b41146105225761021c565b806331e79db0116101a85780635183d6fd116101775780635183d6fd146104465780636a474002146104ae5780636f2789ec146104b657806370a08231146104be578063715018a6146104e45761021c565b806331e79db0146103a857806339509351146103d05780634ca6ef28146103fc5780634e7b827f146104205761021c565b8063226cfa3d116101ef578063226cfa3d1461030057806323b872dd1461032657806327ce01471461035c5780633009a60914610382578063313ce5671461038a5761021c565b806306fdde0314610221578063095ea7b31461029e57806309bbedde146102de57806318160ddd146102f8575b600080fd5b610229610727565b6040805160208082528351818301528351919283929083019185019080838360005b8381101561026357818101518382015260200161024b565b50505050905090810190601f1680156102905780820380516001836020036101000a031916815260200191505b509250505060405180910390f35b6102ca600480360360408110156102b457600080fd5b506001600160a01b0381351690602001356107bd565b604080519115158252519081900360200190f35b6102e66107db565b60408051918252519081900360200190f35b6102e66107e1565b6102e66004803603602081101561031657600080fd5b50356001600160a01b03166107e7565b6102ca6004803603606081101561033c57600080fd5b506001600160a01b038135811691602081013590911690604001356107f9565b6102e66004803603602081101561037257600080fd5b50356001600160a01b0316610880565b6102e66108df565b6103926108e5565b6040805160ff9092168252519081900360200190f35b6103ce600480360360208110156103be57600080fd5b50356001600160a01b03166108ea565b005b6102ca600480360360408110156103e657600080fd5b506001600160a01b038135169060200135610a46565b610404610a94565b604080516001600160a01b039092168252519081900360200190f35b6102ca6004803603602081101561043657600080fd5b50356001600160a01b0316610ab8565b6104636004803603602081101561045c57600080fd5b5035610acd565b604080516001600160a01b0390991689526020890197909752878701959095526060870193909352608086019190915260a085015260c084015260e083015251908190036101000190f35b6103ce610c26565b6102e6610c5d565b6102e6600480360360208110156104d457600080fd5b50356001600160a01b0316610c63565b6103ce610c7e565b6102e6610d20565b610404610d26565b6102e66004803603602081101561051257600080fd5b50356001600160a01b0316610d35565b610229610d40565b6102ca6004803603604081101561054057600080fd5b506001600160a01b038135169060200135610da1565b6102e66004803603602081101561056c57600080fd5b50356001600160a01b0316610e09565b6102ca6004803603604081101561059257600080fd5b506001600160a01b038135169060200135610e35565b6102e6600480360360208110156105be57600080fd5b50356001600160a01b0316610e49565b6103ce600480360360208110156105e457600080fd5b5035610e64565b6102ca6004803603604081101561060157600080fd5b506001600160a01b0381351690602001351515610f4e565b6102e6611023565b6102e66004803603604081101561063757600080fd5b506001600160a01b0381358116916020013516611047565b6103ce6004803603604081101561066557600080fd5b506001600160a01b038135169060200135611072565b6102e661123c565b6103ce6004803603602081101561069957600080fd5b5035611242565b6103ce600480360360208110156106b657600080fd5b50356001600160a01b031661135e565b610463600480360360208110156106dc57600080fd5b50356001600160a01b0316611457565b6107096004803603602081101561070257600080fd5b50356115ca565b60408051938452602084019290925282820152519081900360600190f35b60038054604080516020601f60026000196101006001881615020190951694909404938401819004810282018101909252828152606093909290918301828280156107b35780601f10610788576101008083540402835291602001916107b3565b820191906000526020600020905b81548152906001019060200180831161079657829003601f168201915b5050505050905090565b60006107d16107ca6116c8565b84846116cc565b5060015b92915050565b600a5490565b60025490565b60106020526000908152604090205481565b60006108068484846117b8565b610876846108126116c8565b61087185604051806060016040528060288152602001612059602891396001600160a01b038a166000908152600160205260408120906108506116c8565b6001600160a01b0316815260208101919091526040016000205491906117ef565b6116cc565b5060019392505050565b6001600160a01b038116600090815260076020526040812054600160801b906108cf906108ca906108c46108bf6108b688610c63565b60065490611886565b6118e6565b906118f6565b611929565b816108d657fe5b0490505b919050565b600e5481565b601290565b6108f26116c8565b6005546001600160a01b03908116911614610942576040805162461bcd60e51b81526020600482018190526024820152600080516020612081833981519152604482015290519081900360640190fd5b6001600160a01b0381166000908152600f602052604090205460ff161561096857600080fd5b6001600160a01b0381166000908152600f60205260408120805460ff1916600117905561099690829061193c565b6040805163131836e760e21b8152600a60048201526001600160a01b0383166024820152905173__$ce39e7eba0e8c210ce522c13d692fbaca1$__91634c60db9c916044808301926000929190829003018186803b1580156109f757600080fd5b505af4158015610a0b573d6000803e3d6000fd5b50506040516001600160a01b03841692507fa878b31040b2e6d0a9a3d3361209db3908ba62014b0dca52adbaee451d128b259150600090a250565b60006107d1610a536116c8565b846108718560016000610a646116c8565b6001600160a01b03908116825260208083019390935260409182016000908120918c168152925290205490611995565b7f000000000000000000000000000000000000000000000000000000000000000081565b600f6020526000908152604090205460ff1681565b600080600080600080600080600a73__$ce39e7eba0e8c210ce522c13d692fbaca1$__63deb3d89690916040518263ffffffff1660e01b81526004018082815260200191505060206040518083038186803b158015610b2b57600080fd5b505af4158015610b3f573d6000803e3d6000fd5b505050506040513d6020811015610b5557600080fd5b50518910610b7c575060009650600019955085945086935083925082915081905080610c1b565b610c0a600a73__$ce39e7eba0e8c210ce522c13d692fbaca1$__63d1aa9e7e90918c6040518363ffffffff1660e01b8152600401808381526020018281526020019250505060206040518083038186803b158015610bd957600080fd5b505af4158015610bed573d6000803e3d6000fd5b505050506040513d6020811015610c0357600080fd5b5051611457565b975097509750975097509750975097505b919395975091939597565b60405162461bcd60e51b8152600401808060200182810382526069815260200180611f836069913960800191505060405180910390fd5b60115481565b6001600160a01b031660009081526020819052604090205490565b610c866116c8565b6005546001600160a01b03908116911614610cd6576040805162461bcd60e51b81526020600482018190526024820152600080516020612081833981519152604482015290519081900360640190fd5b6005546040516000916001600160a01b0316907f8be0079c531659141344cd1fd0a4f28419497f9722a3daafe3b4186f6b6457e0908390a3600580546001600160a01b0319169055565b60095481565b6005546001600160a01b031690565b60006107d582610e09565b60048054604080516020601f60026000196101006001881615020190951694909404938401819004810282018101909252828152606093909290918301828280156107b35780601f10610788576101008083540402835291602001916107b3565b60006107d1610dae6116c8565b84610871856040518060600160405280602581526020016120e66025913960016000610dd86116c8565b6001600160a01b03908116825260208083019390935260409182016000908120918d168152925290205491906117ef565b6001600160a01b0381166000908152600860205260408120546107d590610e2f84610880565b906119ef565b60006107d1610e426116c8565b84846117b8565b6001600160a01b031660009081526008602052604090205490565b610e6c6116c8565b6005546001600160a01b03908116911614610ebc576040805162461bcd60e51b81526020600482018190526024820152600080516020612081833981519152604482015290519081900360640190fd5b6000610ec66107e1565b11610ed057600080fd5b8015610f4b57610f01610ee16107e1565b610eef83600160801b611886565b81610ef657fe5b600654919004611995565b60065560408051828152905133917fa493a9229478c3fcd73f66d2cdeb7f94fd0f341da924d1054236d78454116511919081900360200190a2600954610f479082611995565b6009555b50565b6000610f586116c8565b6005546001600160a01b03908116911614610fa8576040805162461bcd60e51b81526020600482018190526024820152600080516020612081833981519152604482015290519081900360640190fd5b6000610fb384611a31565b90508015611019576001600160a01b0384166000818152601060209081526040918290204290558151848152915186151593927fa2c38e2d2fb7e3e1912d937fd1ca11ed6d51864dee4cfa7a7bf02becd7acf09292908290030190a360019150506107d5565b5060009392505050565b7f000000000000000000000000000000000000000000000000000000000000000081565b6001600160a01b03918216600090815260016020908152604080832093909416825291909152205490565b61107a6116c8565b6005546001600160a01b039081169116146110ca576040805162461bcd60e51b81526020600482018190526024820152600080516020612081833981519152604482015290519081900360640190fd5b6001600160a01b0382166000908152600f602052604090205460ff16156110f057611238565b7f000000000000000000000000000000000000000000000000000000000000000081106111a657611121828261193c565b60408051632f0ad01760e21b8152600a60048201526001600160a01b038416602482015260448101839052905173__$ce39e7eba0e8c210ce522c13d692fbaca1$__9163bc2b405c916064808301926000929190829003018186803b15801561118957600080fd5b505af415801561119d573d6000803e3d6000fd5b5050505061122b565b6111b182600061193c565b6040805163131836e760e21b8152600a60048201526001600160a01b0384166024820152905173__$ce39e7eba0e8c210ce522c13d692fbaca1$__91634c60db9c916044808301926000929190829003018186803b15801561121257600080fd5b505af4158015611226573d6000803e3d6000fd5b505050505b611236826001610f4e565b505b5050565b600e5490565b61124a6116c8565b6005546001600160a01b0390811691161461129a576040805162461bcd60e51b81526020600482018190526024820152600080516020612081833981519152604482015290519081900360640190fd5b610e1081101580156112af5750620151808111155b6112ea5760405162461bcd60e51b815260040180806020018281038252604c81526020018061200d604c913960600191505060405180910390fd5b60115481141561132b5760405162461bcd60e51b815260040180806020018281038252603e815260200180611eae603e913960400191505060405180910390fd5b60115460405182907f474ea64804364a1e29a4487ddb63c3342a2dd826ccd8acf48825e680a0e6f20f90600090a3601155565b6113666116c8565b6005546001600160a01b039081169116146113b6576040805162461bcd60e51b81526020600482018190526024820152600080516020612081833981519152604482015290519081900360640190fd5b6001600160a01b0381166113fb5760405162461bcd60e51b8152600401808060200182810382526026815260200180611f3b6026913960400191505060405180910390fd5b6005546040516001600160a01b038084169216907f8be0079c531659141344cd1fd0a4f28419497f9722a3daafe3b4186f6b6457e090600090a3600580546001600160a01b0319166001600160a01b0392909216919091179055565b600080600080600080600080889750600a73__$ce39e7eba0e8c210ce522c13d692fbaca1$__6317e142d190918a6040518363ffffffff1660e01b815260040180838152602001826001600160a01b031681526020019250505060206040518083038186803b1580156114c957600080fd5b505af41580156114dd573d6000803e3d6000fd5b505050506040513d60208110156114f357600080fd5b5051965060001995506000871261155757600e5487111561152357600e5461151c908890611bc0565b9550611557565b600e54600a5460009110611538576000611547565b600e54600a54611547916119ef565b905061155388826118f6565b9650505b61156088610e09565b945061156b88610880565b6001600160a01b0389166000908152601060205260409020549094509250826115955760006115a3565b6011546115a3908490611995565b91504282116115b35760006115bd565b6115bd82426119ef565b9050919395975091939597565b600a5460009081908190806115ea575050600e54600092508291506116c1565b600e546000805a90506000805b898410801561160557508582105b156116b057600a54600190950194851061161e57600094505b6000600a600001868154811061163057fe5b60009182526020808320909101546001600160a01b0316808352601090915260409091205490915061166190611bf2565b1561167d57611671816001610f4e565b1561167d576001909101905b60019092019160005a9050808511156116a7576116a461169d86836119ef565b8790611995565b95505b93506115f79050565b600e85905590975095509193505050505b9193909250565b3390565b6001600160a01b0383166117115760405162461bcd60e51b81526004018080602001828103825260248152602001806120c26024913960400191505060405180910390fd5b6001600160a01b0382166117565760405162461bcd60e51b8152600401808060200182810382526022815260200180611f616022913960400191505060405180910390fd5b6001600160a01b03808416600081815260016020908152604080832094871680845294825291829020859055815185815291517f8c5be1e5ebec7d5bd14f71427d1e84f3dd0314c0f7b2291e5b200ac8c7c3b9259281900390910190a3505050565b60405162461bcd60e51b815260040180806020018281038252602d815260200180611f0e602d913960400191505060405180910390fd5b6000818484111561187e5760405162461bcd60e51b81526004018080602001828103825283818151815260200191508051906020019080838360005b8381101561184357818101518382015260200161182b565b50505050905090810190601f1680156118705780820380516001836020036101000a031916815260200191505b509250505060405180910390fd5b505050900390565b600082611895575060006107d5565b828202828482816118a257fe5b04146118df5760405162461bcd60e51b8152600401808060200182810382526021815260200180611fec6021913960400191505060405180910390fd5b9392505050565b600081818112156107d557600080fd5b600082820181831280159061190b5750838112155b80611920575060008312801561192057508381125b6118df57600080fd5b60008082121561193857600080fd5b5090565b600061194783610c63565b90508082111561196f57600061195d83836119ef565b90506119698482611c19565b50611236565b8082101561123657600061198382846119ef565b905061198f8482611c7d565b50505050565b6000828201838110156118df576040805162461bcd60e51b815260206004820152601b60248201527f536166654d6174683a206164646974696f6e206f766572666c6f770000000000604482015290519081900360640190fd5b60006118df83836040518060400160405280601e81526020017f536166654d6174683a207375627472616374696f6e206f766572666c6f7700008152506117ef565b600080611a3d83610e09565b90508015611bb7576001600160a01b038316600090815260086020526040902054611a689082611995565b6001600160a01b038416600081815260086020908152604091829020939093558051848152905191927fee503bee2bb6a87e57bc57db795f98137327401a0e7b7ce42e37926cc1a9ca4d92918290030190a260007f00000000000000000000000000000000000000000000000000000000000000006001600160a01b031663a9059cbb85846040518363ffffffff1660e01b815260040180836001600160a01b0316815260200182815260200192505050602060405180830381600087803b158015611b3357600080fd5b505af1158015611b47573d6000803e3d6000fd5b505050506040513d6020811015611b5d57600080fd5b5051905080611baf576001600160a01b038416600090815260086020526040902054611b8990836119ef565b6001600160a01b03851660009081526008602052604081209190915592506108da915050565b5090506108da565b50600092915050565b6000818303818312801590611bd55750838113155b80611920575060008312801561192057508381136118df57600080fd5b600042821115611c04575060006108da565b601154611c1142846119ef565b101592915050565b611c238282611cc1565b611c5d611c3e6108bf8360065461188690919063ffffffff16565b6001600160a01b03841660009081526007602052604090205490611bc0565b6001600160a01b0390921660009081526007602052604090209190915550565b611c878282611db1565b611c5d611ca26108bf8360065461188690919063ffffffff16565b6001600160a01b038416600090815260076020526040902054906118f6565b6001600160a01b038216611d1c576040805162461bcd60e51b815260206004820152601f60248201527f45524332303a206d696e7420746f20746865207a65726f206164647265737300604482015290519081900360640190fd5b611d2860008383611236565b600254611d359082611995565b6002556001600160a01b038216600090815260208190526040902054611d5b9082611995565b6001600160a01b0383166000818152602081815260408083209490945583518581529351929391927fddf252ad1be2c89b69c2b068fc378daa952ba7f163c4a11628f55a4df523b3ef9281900390910190a35050565b6001600160a01b038216611df65760405162461bcd60e51b81526004018080602001828103825260218152602001806120a16021913960400191505060405180910390fd5b611e0282600083611236565b611e3f81604051806060016040528060228152602001611eec602291396001600160a01b03851660009081526020819052604090205491906117ef565b6001600160a01b038316600090815260208190526040902055600254611e6590826119ef565b6002556040805182815290516000916001600160a01b038516917fddf252ad1be2c89b69c2b068fc378daa952ba7f163c4a11628f55a4df523b3ef9181900360200190a3505056fe4e5943414b455f4469766964656e645f547261636b65723a2043616e6e6f742075706461746520636c61696d5761697420746f2073616d652076616c756545524332303a206275726e20616d6f756e7420657863656564732062616c616e63654e5943414b455f4469766964656e645f547261636b65723a204e6f207472616e736665727320616c6c6f7765644f776e61626c653a206e6577206f776e657220697320746865207a65726f206164647265737345524332303a20617070726f766520746f20746865207a65726f20616464726573734e5943414b455f4469766964656e645f547261636b65723a2077697468647261774469766964656e642064697361626c65642e20557365207468652027636c61696d272066756e6374696f6e206f6e20746865206d61696e204e5943414b4520636f6e74726163742e536166654d6174683a206d756c7469706c69636174696f6e206f766572666c6f774e5943414b455f4469766964656e645f547261636b65723a20636c61696d57616974206d757374206265207570646174656420746f206265747765656e203120616e6420323420686f75727345524332303a207472616e7366657220616d6f756e74206578636565647320616c6c6f77616e63654f776e61626c653a2063616c6c6572206973206e6f7420746865206f776e657245524332303a206275726e2066726f6d20746865207a65726f206164647265737345524332303a20617070726f76652066726f6d20746865207a65726f206164647265737345524332303a2064656372656173656420616c6c6f77616e63652062656c6f77207a65726fa2646970667358221220a9b130919cd433fbd94cfac07f88bc8325b0a1afe2615553db4e524e01aea81864736f6c634300060c0033",
          "opcodes": "PUSH1 0xC0 PUSH1 0x40 MSTORE PUSH32 0xE09FABB73BD3ADE0A17ECC321FD13A19E81CE82000000000000000000000000 PUSH1 0x80 MSTORE PUSH2 0xE10 PUSH1 0x11 SSTORE PUSH10 0x2A5A058FC295ED000000 PUSH1 0xA0 MSTORE CALLVALUE DUP1 ISZERO PUSH3 0x49 JUMPI PUSH1 0x0 DUP1 REVERT JUMPDEST POP PUSH1 0x40 DUP1 MLOAD DUP1 DUP3 ADD DUP3 MSTORE PUSH1 0x17 DUP1 DUP3 MSTORE PUSH32 0x4E5943414B455F4469766964656E645F547261636B6572000000000000000000 PUSH1 0x20 DUP1 DUP5 ADD DUP3 DUP2 MSTORE DUP6 MLOAD DUP1 DUP8 ADD SWAP1 SWAP7 MSTORE SWAP3 DUP6 MSTORE DUP5 ADD MSTORE DUP2 MLOAD SWAP2 SWAP3 SWAP2 DUP4 SWAP2 DUP4 SWAP2 PUSH3 0xA6 SWAP2 PUSH1 0x3 SWAP2 PUSH3 0x12B JUMP JUMPDEST POP DUP1 MLOAD PUSH3 0xBC SWAP1 PUSH1 0x4 SWAP1 PUSH1 0x20 DUP5 ADD SWAP1 PUSH3 0x12B JUMP JUMPDEST POP POP POP PUSH1 0x0 PUSH3 0xD1 PUSH3 0x127 PUSH1 0x20 SHL PUSH1 0x20 SHR JUMP JUMPDEST PUSH1 0x5 DUP1 SLOAD PUSH1 0x1 PUSH1 0x1 PUSH1 0xA0 SHL SUB NOT AND PUSH1 0x1 PUSH1 0x1 PUSH1 0xA0 SHL SUB DUP4 AND SWAP1 DUP2 OR SWAP1 SWAP2 SSTORE PUSH1 0x40 MLOAD SWAP2 SWAP3 POP SWAP1 PUSH1 0x0 SWAP1 PUSH32 0x8BE0079C531659141344CD1FD0A4F28419497F9722A3DAAFE3B4186F6B6457E0 SWAP1 DUP3 SWAP1 LOG3 POP POP POP PUSH3 0x1C7 JUMP JUMPDEST CALLER SWAP1 JUMP JUMPDEST DUP3 DUP1 SLOAD PUSH1 0x1 DUP2 PUSH1 0x1 AND ISZERO PUSH2 0x100 MUL SUB AND PUSH1 0x2 SWAP1 DIV SWAP1 PUSH1 0x0 MSTORE PUSH1 0x20 PUSH1 0x0 KECCAK256 SWAP1 PUSH1 0x1F ADD PUSH1 0x20 SWAP1 DIV DUP2 ADD SWAP3 DUP3 PUSH1 0x1F LT PUSH3 0x16E JUMPI DUP1 MLOAD PUSH1 0xFF NOT AND DUP4 DUP1 ADD OR DUP6 SSTORE PUSH3 0x19E JUMP JUMPDEST DUP3 DUP1 ADD PUSH1 0x1 ADD DUP6 SSTORE DUP3 ISZERO PUSH3 0x19E JUMPI SWAP2 DUP3 ADD JUMPDEST DUP3 DUP2 GT ISZERO PUSH3 0x19E JUMPI DUP3 MLOAD DUP3 SSTORE SWAP2 PUSH1 0x20 ADD SWAP2 SWAP1 PUSH1 0x1 ADD SWAP1 PUSH3 0x181 JUMP JUMPDEST POP PUSH3 0x1AC SWAP3 SWAP2 POP PUSH3 0x1B0 JUMP JUMPDEST POP SWAP1 JUMP JUMPDEST JUMPDEST DUP1 DUP3 GT ISZERO PUSH3 0x1AC JUMPI PUSH1 0x0 DUP2 SSTORE PUSH1 0x1 ADD PUSH3 0x1B1 JUMP JUMPDEST PUSH1 0x80 MLOAD PUSH1 0x60 SHR PUSH1 0xA0 MLOAD PUSH2 0x2140 PUSH3 0x1F8 PUSH1 0x0 CODECOPY DUP1 PUSH2 0x1025 MSTORE DUP1 PUSH2 0x10F2 MSTORE POP DUP1 PUSH2 0xA96 MSTORE DUP1 PUSH2 0x1ABE MSTORE POP PUSH2 0x2140 PUSH1 0x0 RETURN INVALID PUSH1 0x80 PUSH1 0x40 MSTORE CALLVALUE DUP1 ISZERO PUSH2 0x10 JUMPI PUSH1 0x0 DUP1 REVERT JUMPDEST POP PUSH1 0x4 CALLDATASIZE LT PUSH2 0x21C JUMPI PUSH1 0x0 CALLDATALOAD PUSH1 0xE0 SHR DUP1 PUSH4 0x85A6B3AE GT PUSH2 0x125 JUMPI DUP1 PUSH4 0xBC4C4B37 GT PUSH2 0xAD JUMPI DUP1 PUSH4 0xE7841EC0 GT PUSH2 0x7C JUMPI DUP1 PUSH4 0xE7841EC0 EQ PUSH2 0x67B JUMPI DUP1 PUSH4 0xE98030C7 EQ PUSH2 0x683 JUMPI DUP1 PUSH4 0xF2FDE38B EQ PUSH2 0x6A0 JUMPI DUP1 PUSH4 0xFBCBC0F1 EQ PUSH2 0x6C6 JUMPI DUP1 PUSH4 0xFFB2C479 EQ PUSH2 0x6EC JUMPI PUSH2 0x21C JUMP JUMPDEST DUP1 PUSH4 0xBC4C4B37 EQ PUSH2 0x5EB JUMPI DUP1 PUSH4 0xBE10B614 EQ PUSH2 0x619 JUMPI DUP1 PUSH4 0xDD62ED3E EQ PUSH2 0x621 JUMPI DUP1 PUSH4 0xE30443BC EQ PUSH2 0x64F JUMPI PUSH2 0x21C JUMP JUMPDEST DUP1 PUSH4 0xA457C2D7 GT PUSH2 0xF4 JUMPI DUP1 PUSH4 0xA457C2D7 EQ PUSH2 0x52A JUMPI DUP1 PUSH4 0xA8B9D240 EQ PUSH2 0x556 JUMPI DUP1 PUSH4 0xA9059CBB EQ PUSH2 0x57C JUMPI DUP1 PUSH4 0xAAFD847A EQ PUSH2 0x5A8 JUMPI DUP1 PUSH4 0xBA72A955 EQ PUSH2 0x5CE JUMPI PUSH2 0x21C JUMP JUMPDEST DUP1 PUSH4 0x85A6B3AE EQ PUSH2 0x4EC JUMPI DUP1 PUSH4 0x8DA5CB5B EQ PUSH2 0x4F4 JUMPI DUP1 PUSH4 0x91B89FBA EQ PUSH2 0x4FC JUMPI DUP1 PUSH4 0x95D89B41 EQ PUSH2 0x522 JUMPI PUSH2 0x21C JUMP JUMPDEST DUP1 PUSH4 0x31E79DB0 GT PUSH2 0x1A8 JUMPI DUP1 PUSH4 0x5183D6FD GT PUSH2 0x177 JUMPI DUP1 PUSH4 0x5183D6FD EQ PUSH2 0x446 JUMPI DUP1 PUSH4 0x6A474002 EQ PUSH2 0x4AE JUMPI DUP1 PUSH4 0x6F2789EC EQ PUSH2 0x4B6 JUMPI DUP1 PUSH4 0x70A08231 EQ PUSH2 0x4BE JUMPI DUP1 PUSH4 0x715018A6 EQ PUSH2 0x4E4 JUMPI PUSH2 0x21C JUMP JUMPDEST DUP1 PUSH4 0x31E79DB0 EQ PUSH2 0x3A8 JUMPI DUP1 PUSH4 0x39509351 EQ PUSH2 0x3D0 JUMPI DUP1 PUSH4 0x4CA6EF28 EQ PUSH2 0x3FC JUMPI DUP1 PUSH4 0x4E7B827F EQ PUSH2 0x420 JUMPI PUSH2 0x21C JUMP JUMPDEST DUP1 PUSH4 0x226CFA3D GT PUSH2 0x1EF JUMPI DUP1 PUSH4 0x226CFA3D EQ PUSH2 0x300 JUMPI DUP1 PUSH4 0x23B872DD EQ PUSH2 0x326 JUMPI DUP1 PUSH4 0x27CE0147 EQ PUSH2 0x35C JUMPI DUP1 PUSH4 0x3009A609 EQ PUSH2 0x382 JUMPI DUP1 PUSH4 0x313CE567 EQ PUSH2 0x38A JUMPI PUSH2 0x21C JUMP JUMPDEST DUP1 PUSH4 0x6FDDE03 EQ PUSH2 0x221 JUMPI DUP1 PUSH4 0x95EA7B3 EQ PUSH2 0x29E JUMPI DUP1 PUSH4 0x9BBEDDE EQ PUSH2 0x2DE JUMPI DUP1 PUSH4 0x18160DDD EQ PUSH2 0x2F8 JUMPI JUMPDEST PUSH1 0x0 DUP1 REVERT JUMPDEST PUSH2 0x229 PUSH2 0x727 JUMP JUMPDEST PUSH1 0x40 DUP1 MLOAD PUSH1 0x20 DUP1 DUP3 MSTORE DUP4 MLOAD DUP2 DUP4 ADD MSTORE DUP4 MLOAD SWAP2 SWAP3 DUP4 SWAP3 SWAP1 DUP4 ADD SWAP2 DUP6 ADD SWAP1 DUP1 DUP4 DUP4 PUSH1 0x0 JUMPDEST DUP4 DUP2 LT ISZERO PUSH2 0x263 JUMPI DUP2 DUP2 ADD MLOAD DUP4 DUP3 ADD MSTORE PUSH1 0x20 ADD PUSH2 0x24B JUMP JUMPDEST POP POP POP POP SWAP1 POP SWAP1 DUP2 ADD SWAP1 PUSH1 0x1F AND DUP1 ISZERO PUSH2 0x290 JUMPI DUP1 DUP3 SUB DUP1 MLOAD PUSH1 0x1 DUP4 PUSH1 0x20 SUB PUSH2 0x100 EXP SUB NOT AND DUP2 MSTORE PUSH1 0x20 ADD SWAP2 POP JUMPDEST POP SWAP3 POP POP POP PUSH1 0x40 MLOAD DUP1 SWAP2 SUB SWAP1 RETURN JUMPDEST PUSH2 0x2CA PUSH1 0x4 DUP1 CALLDATASIZE SUB PUSH1 0x40 DUP2 LT ISZERO PUSH2 0x2B4 JUMPI PUSH1 0x0 DUP1 REVERT JUMPDEST POP PUSH1 0x1 PUSH1 0x1 PUSH1 0xA0 SHL SUB DUP2 CALLDATALOAD AND SWAP1 PUSH1 0x20 ADD CALLDATALOAD PUSH2 0x7BD JUMP JUMPDEST PUSH1 0x40 DUP1 MLOAD SWAP2 ISZERO ISZERO DUP3 MSTORE MLOAD SWAP1 DUP2 SWAP1 SUB PUSH1 0x20 ADD SWAP1 RETURN JUMPDEST PUSH2 0x2E6 PUSH2 0x7DB JUMP JUMPDEST PUSH1 0x40 DUP1 MLOAD SWAP2 DUP3 MSTORE MLOAD SWAP1 DUP2 SWAP1 SUB PUSH1 0x20 ADD SWAP1 RETURN JUMPDEST PUSH2 0x2E6 PUSH2 0x7E1 JUMP JUMPDEST PUSH2 0x2E6 PUSH1 0x4 DUP1 CALLDATASIZE SUB PUSH1 0x20 DUP2 LT ISZERO PUSH2 0x316 JUMPI PUSH1 0x0 DUP1 REVERT JUMPDEST POP CALLDATALOAD PUSH1 0x1 PUSH1 0x1 PUSH1 0xA0 SHL SUB AND PUSH2 0x7E7 JUMP JUMPDEST PUSH2 0x2CA PUSH1 0x4 DUP1 CALLDATASIZE SUB PUSH1 0x60 DUP2 LT ISZERO PUSH2 0x33C JUMPI PUSH1 0x0 DUP1 REVERT JUMPDEST POP PUSH1 0x1 PUSH1 0x1 PUSH1 0xA0 SHL SUB DUP2 CALLDATALOAD DUP2 AND SWAP2 PUSH1 0x20 DUP2 ADD CALLDATALOAD SWAP1 SWAP2 AND SWAP1 PUSH1 0x40 ADD CALLDATALOAD PUSH2 0x7F9 JUMP JUMPDEST PUSH2 0x2E6 PUSH1 0x4 DUP1 CALLDATASIZE SUB PUSH1 0x20 DUP2 LT ISZERO PUSH2 0x372 JUMPI PUSH1 0x0 DUP1 REVERT JUMPDEST POP CALLDATALOAD PUSH1 0x1 PUSH1 0x1 PUSH1 0xA0 SHL SUB AND PUSH2 0x880 JUMP JUMPDEST PUSH2 0x2E6 PUSH2 0x8DF JUMP JUMPDEST PUSH2 0x392 PUSH2 0x8E5 JUMP JUMPDEST PUSH1 0x40 DUP1 MLOAD PUSH1 0xFF SWAP1 SWAP3 AND DUP3 MSTORE MLOAD SWAP1 DUP2 SWAP1 SUB PUSH1 0x20 ADD SWAP1 RETURN JUMPDEST PUSH2 0x3CE PUSH1 0x4 DUP1 CALLDATASIZE SUB PUSH1 0x20 DUP2 LT ISZERO PUSH2 0x3BE JUMPI PUSH1 0x0 DUP1 REVERT JUMPDEST POP CALLDATALOAD PUSH1 0x1 PUSH1 0x1 PUSH1 0xA0 SHL SUB AND PUSH2 0x8EA JUMP JUMPDEST STOP JUMPDEST PUSH2 0x2CA PUSH1 0x4 DUP1 CALLDATASIZE SUB PUSH1 0x40 DUP2 LT ISZERO PUSH2 0x3E6 JUMPI PUSH1 0x0 DUP1 REVERT JUMPDEST POP PUSH1 0x1 PUSH1 0x1 PUSH1 0xA0 SHL SUB DUP2 CALLDATALOAD AND SWAP1 PUSH1 0x20 ADD CALLDATALOAD PUSH2 0xA46 JUMP JUMPDEST PUSH2 0x404 PUSH2 0xA94 JUMP JUMPDEST PUSH1 0x40 DUP1 MLOAD PUSH1 0x1 PUSH1 0x1 PUSH1 0xA0 SHL SUB SWAP1 SWAP3 AND DUP3 MSTORE MLOAD SWAP1 DUP2 SWAP1 SUB PUSH1 0x20 ADD SWAP1 RETURN JUMPDEST PUSH2 0x2CA PUSH1 0x4 DUP1 CALLDATASIZE SUB PUSH1 0x20 DUP2 LT ISZERO PUSH2 0x436 JUMPI PUSH1 0x0 DUP1 REVERT JUMPDEST POP CALLDATALOAD PUSH1 0x1 PUSH1 0x1 PUSH1 0xA0 SHL SUB AND PUSH2 0xAB8 JUMP JUMPDEST PUSH2 0x463 PUSH1 0x4 DUP1 CALLDATASIZE SUB PUSH1 0x20 DUP2 LT ISZERO PUSH2 0x45C JUMPI PUSH1 0x0 DUP1 REVERT JUMPDEST POP CALLDATALOAD PUSH2 0xACD JUMP JUMPDEST PUSH1 0x40 DUP1 MLOAD PUSH1 0x1 PUSH1 0x1 PUSH1 0xA0 SHL SUB SWAP1 SWAP10 AND DUP10 MSTORE PUSH1 0x20 DUP10 ADD SWAP8 SWAP1 SWAP8 MSTORE DUP8 DUP8 ADD SWAP6 SWAP1 SWAP6 MSTORE PUSH1 0x60 DUP8 ADD SWAP4 SWAP1 SWAP4 MSTORE PUSH1 0x80 DUP7 ADD SWAP2 SWAP1 SWAP2 MSTORE PUSH1 0xA0 DUP6 ADD MSTORE PUSH1 0xC0 DUP5 ADD MSTORE PUSH1 0xE0 DUP4 ADD MSTORE MLOAD SWAP1 DUP2 SWAP1 SUB PUSH2 0x100 ADD SWAP1 RETURN JUMPDEST PUSH2 0x3CE PUSH2 0xC26 JUMP JUMPDEST PUSH2 0x2E6 PUSH2 0xC5D JUMP JUMPDEST PUSH2 0x2E6 PUSH1 0x4 DUP1 CALLDATASIZE SUB PUSH1 0x20 DUP2 LT ISZERO PUSH2 0x4D4 JUMPI PUSH1 0x0 DUP1 REVERT JUMPDEST POP CALLDATALOAD PUSH1 0x1 PUSH1 0x1 PUSH1 0xA0 SHL SUB AND PUSH2 0xC63 JUMP JUMPDEST PUSH2 0x3CE PUSH2 0xC7E JUMP JUMPDEST PUSH2 0x2E6 PUSH2 0xD20 JUMP JUMPDEST PUSH2 0x404 PUSH2 0xD26 JUMP JUMPDEST PUSH2 0x2E6 PUSH1 0x4 DUP1 CALLDATASIZE SUB PUSH1 0x20 DUP2 LT ISZERO PUSH2 0x512 JUMPI PUSH1 0x0 DUP1 REVERT JUMPDEST POP CALLDATALOAD PUSH1 0x1 PUSH1 0x1 PUSH1 0xA0 SHL SUB AND PUSH2 0xD35 JUMP JUMPDEST PUSH2 0x229 PUSH2 0xD40 JUMP JUMPDEST PUSH2 0x2CA PUSH1 0x4 DUP1 CALLDATASIZE SUB PUSH1 0x40 DUP2 LT ISZERO PUSH2 0x540 JUMPI PUSH1 0x0 DUP1 REVERT JUMPDEST POP PUSH1 0x1 PUSH1 0x1 PUSH1 0xA0 SHL SUB DUP2 CALLDATALOAD AND SWAP1 PUSH1 0x20 ADD CALLDATALOAD PUSH2 0xDA1 JUMP JUMPDEST PUSH2 0x2E6 PUSH1 0x4 DUP1 CALLDATASIZE SUB PUSH1 0x20 DUP2 LT ISZERO PUSH2 0x56C JUMPI PUSH1 0x0 DUP1 REVERT JUMPDEST POP CALLDATALOAD PUSH1 0x1 PUSH1 0x1 PUSH1 0xA0 SHL SUB AND PUSH2 0xE09 JUMP JUMPDEST PUSH2 0x2CA PUSH1 0x4 DUP1 CALLDATASIZE SUB PUSH1 0x40 DUP2 LT ISZERO PUSH2 0x592 JUMPI PUSH1 0x0 DUP1 REVERT JUMPDEST POP PUSH1 0x1 PUSH1 0x1 PUSH1 0xA0 SHL SUB DUP2 CALLDATALOAD AND SWAP1 PUSH1 0x20 ADD CALLDATALOAD PUSH2 0xE35 JUMP JUMPDEST PUSH2 0x2E6 PUSH1 0x4 DUP1 CALLDATASIZE SUB PUSH1 0x20 DUP2 LT ISZERO PUSH2 0x5BE JUMPI PUSH1 0x0 DUP1 REVERT JUMPDEST POP CALLDATALOAD PUSH1 0x1 PUSH1 0x1 PUSH1 0xA0 SHL SUB AND PUSH2 0xE49 JUMP JUMPDEST PUSH2 0x3CE PUSH1 0x4 DUP1 CALLDATASIZE SUB PUSH1 0x20 DUP2 LT ISZERO PUSH2 0x5E4 JUMPI PUSH1 0x0 DUP1 REVERT JUMPDEST POP CALLDATALOAD PUSH2 0xE64 JUMP JUMPDEST PUSH2 0x2CA PUSH1 0x4 DUP1 CALLDATASIZE SUB PUSH1 0x40 DUP2 LT ISZERO PUSH2 0x601 JUMPI PUSH1 0x0 DUP1 REVERT JUMPDEST POP PUSH1 0x1 PUSH1 0x1 PUSH1 0xA0 SHL SUB DUP2 CALLDATALOAD AND SWAP1 PUSH1 0x20 ADD CALLDATALOAD ISZERO ISZERO PUSH2 0xF4E JUMP JUMPDEST PUSH2 0x2E6 PUSH2 0x1023 JUMP JUMPDEST PUSH2 0x2E6 PUSH1 0x4 DUP1 CALLDATASIZE SUB PUSH1 0x40 DUP2 LT ISZERO PUSH2 0x637 JUMPI PUSH1 0x0 DUP1 REVERT JUMPDEST POP PUSH1 0x1 PUSH1 0x1 PUSH1 0xA0 SHL SUB DUP2 CALLDATALOAD DUP2 AND SWAP2 PUSH1 0x20 ADD CALLDATALOAD AND PUSH2 0x1047 JUMP JUMPDEST PUSH2 0x3CE PUSH1 0x4 DUP1 CALLDATASIZE SUB PUSH1 0x40 DUP2 LT ISZERO PUSH2 0x665 JUMPI PUSH1 0x0 DUP1 REVERT JUMPDEST POP PUSH1 0x1 PUSH1 0x1 PUSH1 0xA0 SHL SUB DUP2 CALLDATALOAD AND SWAP1 PUSH1 0x20 ADD CALLDATALOAD PUSH2 0x1072 JUMP JUMPDEST PUSH2 0x2E6 PUSH2 0x123C JUMP JUMPDEST PUSH2 0x3CE PUSH1 0x4 DUP1 CALLDATASIZE SUB PUSH1 0x20 DUP2 LT ISZERO PUSH2 0x699 JUMPI PUSH1 0x0 DUP1 REVERT JUMPDEST POP CALLDATALOAD PUSH2 0x1242 JUMP JUMPDEST PUSH2 0x3CE PUSH1 0x4 DUP1 CALLDATASIZE SUB PUSH1 0x20 DUP2 LT ISZERO PUSH2 0x6B6 JUMPI PUSH1 0x0 DUP1 REVERT JUMPDEST POP CALLDATALOAD PUSH1 0x1 PUSH1 0x1 PUSH1 0xA0 SHL SUB AND PUSH2 0x135E JUMP JUMPDEST PUSH2 0x463 PUSH1 0x4 DUP1 CALLDATASIZE SUB PUSH1 0x20 DUP2 LT ISZERO PUSH2 0x6DC JUMPI PUSH1 0x0 DUP1 REVERT JUMPDEST POP CALLDATALOAD PUSH1 0x1 PUSH1 0x1 PUSH1 0xA0 SHL SUB AND PUSH2 0x1457 JUMP JUMPDEST PUSH2 0x709 PUSH1 0x4 DUP1 CALLDATASIZE SUB PUSH1 0x20 DUP2 LT ISZERO PUSH2 0x702 JUMPI PUSH1 0x0 DUP1 REVERT JUMPDEST POP CALLDATALOAD PUSH2 0x15CA JUMP JUMPDEST PUSH1 0x40 DUP1 MLOAD SWAP4 DUP5 MSTORE PUSH1 0x20 DUP5 ADD SWAP3 SWAP1 SWAP3 MSTORE DUP3 DUP3 ADD MSTORE MLOAD SWAP1 DUP2 SWAP1 SUB PUSH1 0x60 ADD SWAP1 RETURN JUMPDEST PUSH1 0x3 DUP1 SLOAD PUSH1 0x40 DUP1 MLOAD PUSH1 0x20 PUSH1 0x1F PUSH1 0x2 PUSH1 0x0 NOT PUSH2 0x100 PUSH1 0x1 DUP9 AND ISZERO MUL ADD SWAP1 SWAP6 AND SWAP5 SWAP1 SWAP5 DIV SWAP4 DUP5 ADD DUP2 SWAP1 DIV DUP2 MUL DUP3 ADD DUP2 ADD SWAP1 SWAP3 MSTORE DUP3 DUP2 MSTORE PUSH1 0x60 SWAP4 SWAP1 SWAP3 SWAP1 SWAP2 DUP4 ADD DUP3 DUP3 DUP1 ISZERO PUSH2 0x7B3 JUMPI DUP1 PUSH1 0x1F LT PUSH2 0x788 JUMPI PUSH2 0x100 DUP1 DUP4 SLOAD DIV MUL DUP4 MSTORE SWAP2 PUSH1 0x20 ADD SWAP2 PUSH2 0x7B3 JUMP JUMPDEST DUP3 ADD SWAP2 SWAP1 PUSH1 0x0 MSTORE PUSH1 0x20 PUSH1 0x0 KECCAK256 SWAP1 JUMPDEST DUP2 SLOAD DUP2 MSTORE SWAP1 PUSH1 0x1 ADD SWAP1 PUSH1 0x20 ADD DUP1 DUP4 GT PUSH2 0x796 JUMPI DUP3 SWAP1 SUB PUSH1 0x1F AND DUP3 ADD SWAP2 JUMPDEST POP POP POP POP POP SWAP1 POP SWAP1 JUMP JUMPDEST PUSH1 0x0 PUSH2 0x7D1 PUSH2 0x7CA PUSH2 0x16C8 JUMP JUMPDEST DUP5 DUP5 PUSH2 0x16CC JUMP JUMPDEST POP PUSH1 0x1 JUMPDEST SWAP3 SWAP2 POP POP JUMP JUMPDEST PUSH1 0xA SLOAD SWAP1 JUMP JUMPDEST PUSH1 0x2 SLOAD SWAP1 JUMP JUMPDEST PUSH1 0x10 PUSH1 0x20 MSTORE PUSH1 0x0 SWAP1 DUP2 MSTORE PUSH1 0x40 SWAP1 KECCAK256 SLOAD DUP2 JUMP JUMPDEST PUSH1 0x0 PUSH2 0x806 DUP5 DUP5 DUP5 PUSH2 0x17B8 JUMP JUMPDEST PUSH2 0x876 DUP5 PUSH2 0x812 PUSH2 0x16C8 JUMP JUMPDEST PUSH2 0x871 DUP6 PUSH1 0x40 MLOAD DUP1 PUSH1 0x60 ADD PUSH1 0x40 MSTORE DUP1 PUSH1 0x28 DUP2 MSTORE PUSH1 0x20 ADD PUSH2 0x2059 PUSH1 0x28 SWAP2 CODECOPY PUSH1 0x1 PUSH1 0x1 PUSH1 0xA0 SHL SUB DUP11 AND PUSH1 0x0 SWAP1 DUP2 MSTORE PUSH1 0x1 PUSH1 0x20 MSTORE PUSH1 0x40 DUP2 KECCAK256 SWAP1 PUSH2 0x850 PUSH2 0x16C8 JUMP JUMPDEST PUSH1 0x1 PUSH1 0x1 PUSH1 0xA0 SHL SUB AND DUP2 MSTORE PUSH1 0x20 DUP2 ADD SWAP2 SWAP1 SWAP2 MSTORE PUSH1 0x40 ADD PUSH1 0x0 KECCAK256 SLOAD SWAP2 SWAP1 PUSH2 0x17EF JUMP JUMPDEST PUSH2 0x16CC JUMP JUMPDEST POP PUSH1 0x1 SWAP4 SWAP3 POP POP POP JUMP JUMPDEST PUSH1 0x1 PUSH1 0x1 PUSH1 0xA0 SHL SUB DUP2 AND PUSH1 0x0 SWAP1 DUP2 MSTORE PUSH1 0x7 PUSH1 0x20 MSTORE PUSH1 0x40 DUP2 KECCAK256 SLOAD PUSH1 0x1 PUSH1 0x80 SHL SWAP1 PUSH2 0x8CF SWAP1 PUSH2 0x8CA SWAP1 PUSH2 0x8C4 PUSH2 0x8BF PUSH2 0x8B6 DUP9 PUSH2 0xC63 JUMP JUMPDEST PUSH1 0x6 SLOAD SWAP1 PUSH2 0x1886 JUMP JUMPDEST PUSH2 0x18E6 JUMP JUMPDEST SWAP1 PUSH2 0x18F6 JUMP JUMPDEST PUSH2 0x1929 JUMP JUMPDEST DUP2 PUSH2 0x8D6 JUMPI INVALID JUMPDEST DIV SWAP1 POP JUMPDEST SWAP2 SWAP1 POP JUMP JUMPDEST PUSH1 0xE SLOAD DUP2 JUMP JUMPDEST PUSH1 0x12 SWAP1 JUMP JUMPDEST PUSH2 0x8F2 PUSH2 0x16C8 JUMP JUMPDEST PUSH1 0x5 SLOAD PUSH1 0x1 PUSH1 0x1 PUSH1 0xA0 SHL SUB SWAP1 DUP2 AND SWAP2 AND EQ PUSH2 0x942 JUMPI PUSH1 0x40 DUP1 MLOAD PUSH3 0x461BCD PUSH1 0xE5 SHL DUP2 MSTORE PUSH1 0x20 PUSH1 0x4 DUP3 ADD DUP2 SWAP1 MSTORE PUSH1 0x24 DUP3 ADD MSTORE PUSH1 0x0 DUP1 MLOAD PUSH1 0x20 PUSH2 0x2081 DUP4 CODECOPY DUP2 MLOAD SWAP2 MSTORE PUSH1 0x44 DUP3 ADD MSTORE SWAP1 MLOAD SWAP1 DUP2 SWAP1 SUB PUSH1 0x64 ADD SWAP1 REVERT JUMPDEST PUSH1 0x1 PUSH1 0x1 PUSH1 0xA0 SHL SUB DUP2 AND PUSH1 0x0 SWAP1 DUP2 MSTORE PUSH1 0xF PUSH1 0x20 MSTORE PUSH1 0x40 SWAP1 KECCAK256 SLOAD PUSH1 0xFF AND ISZERO PUSH2 0x968 JUMPI PUSH1 0x0 DUP1 REVERT JUMPDEST PUSH1 0x1 PUSH1 0x1 PUSH1 0xA0 SHL SUB DUP2 AND PUSH1 0x0 SWAP1 DUP2 MSTORE PUSH1 0xF PUSH1 0x20 MSTORE PUSH1 0x40 DUP2 KECCAK256 DUP1 SLOAD PUSH1 0xFF NOT AND PUSH1 0x1 OR SWAP1 SSTORE PUSH2 0x996 SWAP1 DUP3 SWAP1 PUSH2 0x193C JUMP JUMPDEST PUSH1 0x40 DUP1 MLOAD PUSH4 0x131836E7 PUSH1 0xE2 SHL DUP2 MSTORE PUSH1 0xA PUSH1 0x4 DUP3 ADD MSTORE PUSH1 0x1 PUSH1 0x1 PUSH1 0xA0 SHL SUB DUP4 AND PUSH1 0x24 DUP3 ADD MSTORE SWAP1 MLOAD PUSH20 0x0 SWAP2 PUSH4 0x4C60DB9C SWAP2 PUSH1 0x44 DUP1 DUP4 ADD SWAP3 PUSH1 0x0 SWAP3 SWAP2 SWAP1 DUP3 SWAP1 SUB ADD DUP2 DUP7 DUP1 EXTCODESIZE ISZERO DUP1 ISZERO PUSH2 0x9F7 JUMPI PUSH1 0x0 DUP1 REVERT JUMPDEST POP GAS DELEGATECALL ISZERO DUP1 ISZERO PUSH2 0xA0B JUMPI RETURNDATASIZE PUSH1 0x0 DUP1 RETURNDATACOPY RETURNDATASIZE PUSH1 0x0 REVERT JUMPDEST POP POP PUSH1 0x40 MLOAD PUSH1 0x1 PUSH1 0x1 PUSH1 0xA0 SHL SUB DUP5 AND SWAP3 POP PUSH32 0xA878B31040B2E6D0A9A3D3361209DB3908BA62014B0DCA52ADBAEE451D128B25 SWAP2 POP PUSH1 0x0 SWAP1 LOG2 POP JUMP JUMPDEST PUSH1 0x0 PUSH2 0x7D1 PUSH2 0xA53 PUSH2 0x16C8 JUMP JUMPDEST DUP5 PUSH2 0x871 DUP6 PUSH1 0x1 PUSH1 0x0 PUSH2 0xA64 PUSH2 0x16C8 JUMP JUMPDEST PUSH1 0x1 PUSH1 0x1 PUSH1 0xA0 SHL SUB SWAP1 DUP2 AND DUP3 MSTORE PUSH1 0x20 DUP1 DUP4 ADD SWAP4 SWAP1 SWAP4 MSTORE PUSH1 0x40 SWAP2 DUP3 ADD PUSH1 0x0 SWAP1 DUP2 KECCAK256 SWAP2 DUP13 AND DUP2 MSTORE SWAP3 MSTORE SWAP1 KECCAK256 SLOAD SWAP1 PUSH2 0x1995 JUMP JUMPDEST PUSH32 0x0 DUP2 JUMP JUMPDEST PUSH1 0xF PUSH1 0x20 MSTORE PUSH1 0x0 SWAP1 DUP2 MSTORE PUSH1 0x40 SWAP1 KECCAK256 SLOAD PUSH1 0xFF AND DUP2 JUMP JUMPDEST PUSH1 0x0 DUP1 PUSH1 0x0 DUP1 PUSH1 0x0 DUP1 PUSH1 0x0 DUP1 PUSH1 0xA PUSH20 0x0 PUSH4 0xDEB3D896 SWAP1 SWAP2 PUSH1 0x40 MLOAD DUP3 PUSH4 0xFFFFFFFF AND PUSH1 0xE0 SHL DUP2 MSTORE PUSH1 0x4 ADD DUP1 DUP3 DUP2 MSTORE PUSH1 0x20 ADD SWAP2 POP POP PUSH1 0x20 PUSH1 0x40 MLOAD DUP1 DUP4 SUB DUP2 DUP7 DUP1 EXTCODESIZE ISZERO DUP1 ISZERO PUSH2 0xB2B JUMPI PUSH1 0x0 DUP1 REVERT JUMPDEST POP GAS DELEGATECALL ISZERO DUP1 ISZERO PUSH2 0xB3F JUMPI RETURNDATASIZE PUSH1 0x0 DUP1 RETURNDATACOPY RETURNDATASIZE PUSH1 0x0 REVERT JUMPDEST POP POP POP POP PUSH1 0x40 MLOAD RETURNDATASIZE PUSH1 0x20 DUP2 LT ISZERO PUSH2 0xB55 JUMPI PUSH1 0x0 DUP1 REVERT JUMPDEST POP MLOAD DUP10 LT PUSH2 0xB7C JUMPI POP PUSH1 0x0 SWAP7 POP PUSH1 0x0 NOT SWAP6 POP DUP6 SWAP5 POP DUP7 SWAP4 POP DUP4 SWAP3 POP DUP3 SWAP2 POP DUP2 SWAP1 POP DUP1 PUSH2 0xC1B JUMP JUMPDEST PUSH2 0xC0A PUSH1 0xA PUSH20 0x0 PUSH4 0xD1AA9E7E SWAP1 SWAP2 DUP13 PUSH1 0x40 MLOAD DUP4 PUSH4 0xFFFFFFFF AND PUSH1 0xE0 SHL DUP2 MSTORE PUSH1 0x4 ADD DUP1 DUP4 DUP2 MSTORE PUSH1 0x20 ADD DUP3 DUP2 MSTORE PUSH1 0x20 ADD SWAP3 POP POP POP PUSH1 0x20 PUSH1 0x40 MLOAD DUP1 DUP4 SUB DUP2 DUP7 DUP1 EXTCODESIZE ISZERO DUP1 ISZERO PUSH2 0xBD9 JUMPI PUSH1 0x0 DUP1 REVERT JUMPDEST POP GAS DELEGATECALL ISZERO DUP1 ISZERO PUSH2 0xBED JUMPI RETURNDATASIZE PUSH1 0x0 DUP1 RETURNDATACOPY RETURNDATASIZE PUSH1 0x0 REVERT JUMPDEST POP POP POP POP PUSH1 0x40 MLOAD RETURNDATASIZE PUSH1 0x20 DUP2 LT ISZERO PUSH2 0xC03 JUMPI PUSH1 0x0 DUP1 REVERT JUMPDEST POP MLOAD PUSH2 0x1457 JUMP JUMPDEST SWAP8 POP SWAP8 POP SWAP8 POP SWAP8 POP SWAP8 POP SWAP8 POP SWAP8 POP SWAP8 POP JUMPDEST SWAP2 SWAP4 SWAP6 SWAP8 POP SWAP2 SWAP4 SWAP6 SWAP8 JUMP JUMPDEST PUSH1 0x40 MLOAD PUSH3 0x461BCD PUSH1 0xE5 SHL DUP2 MSTORE PUSH1 0x4 ADD DUP1 DUP1 PUSH1 0x20 ADD DUP3 DUP2 SUB DUP3 MSTORE PUSH1 0x69 DUP2 MSTORE PUSH1 0x20 ADD DUP1 PUSH2 0x1F83 PUSH1 0x69 SWAP2 CODECOPY PUSH1 0x80 ADD SWAP2 POP POP PUSH1 0x40 MLOAD DUP1 SWAP2 SUB SWAP1 REVERT JUMPDEST PUSH1 0x11 SLOAD DUP2 JUMP JUMPDEST PUSH1 0x1 PUSH1 0x1 PUSH1 0xA0 SHL SUB AND PUSH1 0x0 SWAP1 DUP2 MSTORE PUSH1 0x20 DUP2 SWAP1 MSTORE PUSH1 0x40 SWAP1 KECCAK256 SLOAD SWAP1 JUMP JUMPDEST PUSH2 0xC86 PUSH2 0x16C8 JUMP JUMPDEST PUSH1 0x5 SLOAD PUSH1 0x1 PUSH1 0x1 PUSH1 0xA0 SHL SUB SWAP1 DUP2 AND SWAP2 AND EQ PUSH2 0xCD6 JUMPI PUSH1 0x40 DUP1 MLOAD PUSH3 0x461BCD PUSH1 0xE5 SHL DUP2 MSTORE PUSH1 0x20 PUSH1 0x4 DUP3 ADD DUP2 SWAP1 MSTORE PUSH1 0x24 DUP3 ADD MSTORE PUSH1 0x0 DUP1 MLOAD PUSH1 0x20 PUSH2 0x2081 DUP4 CODECOPY DUP2 MLOAD SWAP2 MSTORE PUSH1 0x44 DUP3 ADD MSTORE SWAP1 MLOAD SWAP1 DUP2 SWAP1 SUB PUSH1 0x64 ADD SWAP1 REVERT JUMPDEST PUSH1 0x5 SLOAD PUSH1 0x40 MLOAD PUSH1 0x0 SWAP2 PUSH1 0x1 PUSH1 0x1 PUSH1 0xA0 SHL SUB AND SWAP1 PUSH32 0x8BE0079C531659141344CD1FD0A4F28419497F9722A3DAAFE3B4186F6B6457E0 SWAP1 DUP4 SWAP1 LOG3 PUSH1 0x5 DUP1 SLOAD PUSH1 0x1 PUSH1 0x1 PUSH1 0xA0 SHL SUB NOT AND SWAP1 SSTORE JUMP JUMPDEST PUSH1 0x9 SLOAD DUP2 JUMP JUMPDEST PUSH1 0x5 SLOAD PUSH1 0x1 PUSH1 0x1 PUSH1 0xA0 SHL SUB AND SWAP1 JUMP JUMPDEST PUSH1 0x0 PUSH2 0x7D5 DUP3 PUSH2 0xE09 JUMP JUMPDEST PUSH1 0x4 DUP1 SLOAD PUSH1 0x40 DUP1 MLOAD PUSH1 0x20 PUSH1 0x1F PUSH1 0x2 PUSH1 0x0 NOT PUSH2 0x100 PUSH1 0x1 DUP9 AND ISZERO MUL ADD SWAP1 SWAP6 AND SWAP5 SWAP1 SWAP5 DIV SWAP4 DUP5 ADD DUP2 SWAP1 DIV DUP2 MUL DUP3 ADD DUP2 ADD SWAP1 SWAP3 MSTORE DUP3 DUP2 MSTORE PUSH1 0x60 SWAP4 SWAP1 SWAP3 SWAP1 SWAP2 DUP4 ADD DUP3 DUP3 DUP1 ISZERO PUSH2 0x7B3 JUMPI DUP1 PUSH1 0x1F LT PUSH2 0x788 JUMPI PUSH2 0x100 DUP1 DUP4 SLOAD DIV MUL DUP4 MSTORE SWAP2 PUSH1 0x20 ADD SWAP2 PUSH2 0x7B3 JUMP JUMPDEST PUSH1 0x0 PUSH2 0x7D1 PUSH2 0xDAE PUSH2 0x16C8 JUMP JUMPDEST DUP5 PUSH2 0x871 DUP6 PUSH1 0x40 MLOAD DUP1 PUSH1 0x60 ADD PUSH1 0x40 MSTORE DUP1 PUSH1 0x25 DUP2 MSTORE PUSH1 0x20 ADD PUSH2 0x20E6 PUSH1 0x25 SWAP2 CODECOPY PUSH1 0x1 PUSH1 0x0 PUSH2 0xDD8 PUSH2 0x16C8 JUMP JUMPDEST PUSH1 0x1 PUSH1 0x1 PUSH1 0xA0 SHL SUB SWAP1 DUP2 AND DUP3 MSTORE PUSH1 0x20 DUP1 DUP4 ADD SWAP4 SWAP1 SWAP4 MSTORE PUSH1 0x40 SWAP2 DUP3 ADD PUSH1 0x0 SWAP1 DUP2 KECCAK256 SWAP2 DUP14 AND DUP2 MSTORE SWAP3 MSTORE SWAP1 KECCAK256 SLOAD SWAP2 SWAP1 PUSH2 0x17EF JUMP JUMPDEST PUSH1 0x1 PUSH1 0x1 PUSH1 0xA0 SHL SUB DUP2 AND PUSH1 0x0 SWAP1 DUP2 MSTORE PUSH1 0x8 PUSH1 0x20 MSTORE PUSH1 0x40 DUP2 KECCAK256 SLOAD PUSH2 0x7D5 SWAP1 PUSH2 0xE2F DUP5 PUSH2 0x880 JUMP JUMPDEST SWAP1 PUSH2 0x19EF JUMP JUMPDEST PUSH1 0x0 PUSH2 0x7D1 PUSH2 0xE42 PUSH2 0x16C8 JUMP JUMPDEST DUP5 DUP5 PUSH2 0x17B8 JUMP JUMPDEST PUSH1 0x1 PUSH1 0x1 PUSH1 0xA0 SHL SUB AND PUSH1 0x0 SWAP1 DUP2 MSTORE PUSH1 0x8 PUSH1 0x20 MSTORE PUSH1 0x40 SWAP1 KECCAK256 SLOAD SWAP1 JUMP JUMPDEST PUSH2 0xE6C PUSH2 0x16C8 JUMP JUMPDEST PUSH1 0x5 SLOAD PUSH1 0x1 PUSH1 0x1 PUSH1 0xA0 SHL SUB SWAP1 DUP2 AND SWAP2 AND EQ PUSH2 0xEBC JUMPI PUSH1 0x40 DUP1 MLOAD PUSH3 0x461BCD PUSH1 0xE5 SHL DUP2 MSTORE PUSH1 0x20 PUSH1 0x4 DUP3 ADD DUP2 SWAP1 MSTORE PUSH1 0x24 DUP3 ADD MSTORE PUSH1 0x0 DUP1 MLOAD PUSH1 0x20 PUSH2 0x2081 DUP4 CODECOPY DUP2 MLOAD SWAP2 MSTORE PUSH1 0x44 DUP3 ADD MSTORE SWAP1 MLOAD SWAP1 DUP2 SWAP1 SUB PUSH1 0x64 ADD SWAP1 REVERT JUMPDEST PUSH1 0x0 PUSH2 0xEC6 PUSH2 0x7E1 JUMP JUMPDEST GT PUSH2 0xED0 JUMPI PUSH1 0x0 DUP1 REVERT JUMPDEST DUP1 ISZERO PUSH2 0xF4B JUMPI PUSH2 0xF01 PUSH2 0xEE1 PUSH2 0x7E1 JUMP JUMPDEST PUSH2 0xEEF DUP4 PUSH1 0x1 PUSH1 0x80 SHL PUSH2 0x1886 JUMP JUMPDEST DUP2 PUSH2 0xEF6 JUMPI INVALID JUMPDEST PUSH1 0x6 SLOAD SWAP2 SWAP1 DIV PUSH2 0x1995 JUMP JUMPDEST PUSH1 0x6 SSTORE PUSH1 0x40 DUP1 MLOAD DUP3 DUP2 MSTORE SWAP1 MLOAD CALLER SWAP2 PUSH32 0xA493A9229478C3FCD73F66D2CDEB7F94FD0F341DA924D1054236D78454116511 SWAP2 SWAP1 DUP2 SWAP1 SUB PUSH1 0x20 ADD SWAP1 LOG2 PUSH1 0x9 SLOAD PUSH2 0xF47 SWAP1 DUP3 PUSH2 0x1995 JUMP JUMPDEST PUSH1 0x9 SSTORE JUMPDEST POP JUMP JUMPDEST PUSH1 0x0 PUSH2 0xF58 PUSH2 0x16C8 JUMP JUMPDEST PUSH1 0x5 SLOAD PUSH1 0x1 PUSH1 0x1 PUSH1 0xA0 SHL SUB SWAP1 DUP2 AND SWAP2 AND EQ PUSH2 0xFA8 JUMPI PUSH1 0x40 DUP1 MLOAD PUSH3 0x461BCD PUSH1 0xE5 SHL DUP2 MSTORE PUSH1 0x20 PUSH1 0x4 DUP3 ADD DUP2 SWAP1 MSTORE PUSH1 0x24 DUP3 ADD MSTORE PUSH1 0x0 DUP1 MLOAD PUSH1 0x20 PUSH2 0x2081 DUP4 CODECOPY DUP2 MLOAD SWAP2 MSTORE PUSH1 0x44 DUP3 ADD MSTORE SWAP1 MLOAD SWAP1 DUP2 SWAP1 SUB PUSH1 0x64 ADD SWAP1 REVERT JUMPDEST PUSH1 0x0 PUSH2 0xFB3 DUP5 PUSH2 0x1A31 JUMP JUMPDEST SWAP1 POP DUP1 ISZERO PUSH2 0x1019 JUMPI PUSH1 0x1 PUSH1 0x1 PUSH1 0xA0 SHL SUB DUP5 AND PUSH1 0x0 DUP2 DUP2 MSTORE PUSH1 0x10 PUSH1 0x20 SWAP1 DUP2 MSTORE PUSH1 0x40 SWAP2 DUP3 SWAP1 KECCAK256 TIMESTAMP SWAP1 SSTORE DUP2 MLOAD DUP5 DUP2 MSTORE SWAP2 MLOAD DUP7 ISZERO ISZERO SWAP4 SWAP3 PUSH32 0xA2C38E2D2FB7E3E1912D937FD1CA11ED6D51864DEE4CFA7A7BF02BECD7ACF092 SWAP3 SWAP1 DUP3 SWAP1 SUB ADD SWAP1 LOG3 PUSH1 0x1 SWAP2 POP POP PUSH2 0x7D5 JUMP JUMPDEST POP PUSH1 0x0 SWAP4 SWAP3 POP POP POP JUMP JUMPDEST PUSH32 0x0 DUP2 JUMP JUMPDEST PUSH1 0x1 PUSH1 0x1 PUSH1 0xA0 SHL SUB SWAP2 DUP3 AND PUSH1 0x0 SWAP1 DUP2 MSTORE PUSH1 0x1 PUSH1 0x20 SWAP1 DUP2 MSTORE PUSH1 0x40 DUP1 DUP4 KECCAK256 SWAP4 SWAP1 SWAP5 AND DUP3 MSTORE SWAP2 SWAP1 SWAP2 MSTORE KECCAK256 SLOAD SWAP1 JUMP JUMPDEST PUSH2 0x107A PUSH2 0x16C8 JUMP JUMPDEST PUSH1 0x5 SLOAD PUSH1 0x1 PUSH1 0x1 PUSH1 0xA0 SHL SUB SWAP1 DUP2 AND SWAP2 AND EQ PUSH2 0x10CA JUMPI PUSH1 0x40 DUP1 MLOAD PUSH3 0x461BCD PUSH1 0xE5 SHL DUP2 MSTORE PUSH1 0x20 PUSH1 0x4 DUP3 ADD DUP2 SWAP1 MSTORE PUSH1 0x24 DUP3 ADD MSTORE PUSH1 0x0 DUP1 MLOAD PUSH1 0x20 PUSH2 0x2081 DUP4 CODECOPY DUP2 MLOAD SWAP2 MSTORE PUSH1 0x44 DUP3 ADD MSTORE SWAP1 MLOAD SWAP1 DUP2 SWAP1 SUB PUSH1 0x64 ADD SWAP1 REVERT JUMPDEST PUSH1 0x1 PUSH1 0x1 PUSH1 0xA0 SHL SUB DUP3 AND PUSH1 0x0 SWAP1 DUP2 MSTORE PUSH1 0xF PUSH1 0x20 MSTORE PUSH1 0x40 SWAP1 KECCAK256 SLOAD PUSH1 0xFF AND ISZERO PUSH2 0x10F0 JUMPI PUSH2 0x1238 JUMP JUMPDEST PUSH32 0x0 DUP2 LT PUSH2 0x11A6 JUMPI PUSH2 0x1121 DUP3 DUP3 PUSH2 0x193C JUMP JUMPDEST PUSH1 0x40 DUP1 MLOAD PUSH4 0x2F0AD017 PUSH1 0xE2 SHL DUP2 MSTORE PUSH1 0xA PUSH1 0x4 DUP3 ADD MSTORE PUSH1 0x1 PUSH1 0x1 PUSH1 0xA0 SHL SUB DUP5 AND PUSH1 0x24 DUP3 ADD MSTORE PUSH1 0x44 DUP2 ADD DUP4 SWAP1 MSTORE SWAP1 MLOAD PUSH20 0x0 SWAP2 PUSH4 0xBC2B405C SWAP2 PUSH1 0x64 DUP1 DUP4 ADD SWAP3 PUSH1 0x0 SWAP3 SWAP2 SWAP1 DUP3 SWAP1 SUB ADD DUP2 DUP7 DUP1 EXTCODESIZE ISZERO DUP1 ISZERO PUSH2 0x1189 JUMPI PUSH1 0x0 DUP1 REVERT JUMPDEST POP GAS DELEGATECALL ISZERO DUP1 ISZERO PUSH2 0x119D JUMPI RETURNDATASIZE PUSH1 0x0 DUP1 RETURNDATACOPY RETURNDATASIZE PUSH1 0x0 REVERT JUMPDEST POP POP POP POP PUSH2 0x122B JUMP JUMPDEST PUSH2 0x11B1 DUP3 PUSH1 0x0 PUSH2 0x193C JUMP JUMPDEST PUSH1 0x40 DUP1 MLOAD PUSH4 0x131836E7 PUSH1 0xE2 SHL DUP2 MSTORE PUSH1 0xA PUSH1 0x4 DUP3 ADD MSTORE PUSH1 0x1 PUSH1 0x1 PUSH1 0xA0 SHL SUB DUP5 AND PUSH1 0x24 DUP3 ADD MSTORE SWAP1 MLOAD PUSH20 0x0 SWAP2 PUSH4 0x4C60DB9C SWAP2 PUSH1 0x44 DUP1 DUP4 ADD SWAP3 PUSH1 0x0 SWAP3 SWAP2 SWAP1 DUP3 SWAP1 SUB ADD DUP2 DUP7 DUP1 EXTCODESIZE ISZERO DUP1 ISZERO PUSH2 0x1212 JUMPI PUSH1 0x0 DUP1 REVERT JUMPDEST POP GAS DELEGATECALL ISZERO DUP1 ISZERO PUSH2 0x1226 JUMPI RETURNDATASIZE PUSH1 0x0 DUP1 RETURNDATACOPY RETURNDATASIZE PUSH1 0x0 REVERT JUMPDEST POP POP POP POP JUMPDEST PUSH2 0x1236 DUP3 PUSH1 0x1 PUSH2 0xF4E JUMP JUMPDEST POP JUMPDEST POP POP JUMP JUMPDEST PUSH1 0xE SLOAD SWAP1 JUMP JUMPDEST PUSH2 0x124A PUSH2 0x16C8 JUMP JUMPDEST PUSH1 0x5 SLOAD PUSH1 0x1 PUSH1 0x1 PUSH1 0xA0 SHL SUB SWAP1 DUP2 AND SWAP2 AND EQ PUSH2 0x129A JUMPI PUSH1 0x40 DUP1 MLOAD PUSH3 0x461BCD PUSH1 0xE5 SHL DUP2 MSTORE PUSH1 0x20 PUSH1 0x4 DUP3 ADD DUP2 SWAP1 MSTORE PUSH1 0x24 DUP3 ADD MSTORE PUSH1 0x0 DUP1 MLOAD PUSH1 0x20 PUSH2 0x2081 DUP4 CODECOPY DUP2 MLOAD SWAP2 MSTORE PUSH1 0x44 DUP3 ADD MSTORE SWAP1 MLOAD SWAP1 DUP2 SWAP1 SUB PUSH1 0x64 ADD SWAP1 REVERT JUMPDEST PUSH2 0xE10 DUP2 LT ISZERO DUP1 ISZERO PUSH2 0x12AF JUMPI POP PUSH3 0x15180 DUP2 GT ISZERO JUMPDEST PUSH2 0x12EA JUMPI PUSH1 0x40 MLOAD PUSH3 0x461BCD PUSH1 0xE5 SHL DUP2 MSTORE PUSH1 0x4 ADD DUP1 DUP1 PUSH1 0x20 ADD DUP3 DUP2 SUB DUP3 MSTORE PUSH1 0x4C DUP2 MSTORE PUSH1 0x20 ADD DUP1 PUSH2 0x200D PUSH1 0x4C SWAP2 CODECOPY PUSH1 0x60 ADD SWAP2 POP POP PUSH1 0x40 MLOAD DUP1 SWAP2 SUB SWAP1 REVERT JUMPDEST PUSH1 0x11 SLOAD DUP2 EQ ISZERO PUSH2 0x132B JUMPI PUSH1 0x40 MLOAD PUSH3 0x461BCD PUSH1 0xE5 SHL DUP2 MSTORE PUSH1 0x4 ADD DUP1 DUP1 PUSH1 0x20 ADD DUP3 DUP2 SUB DUP3 MSTORE PUSH1 0x3E DUP2 MSTORE PUSH1 0x20 ADD DUP1 PUSH2 0x1EAE PUSH1 0x3E SWAP2 CODECOPY PUSH1 0x40 ADD SWAP2 POP POP PUSH1 0x40 MLOAD DUP1 SWAP2 SUB SWAP1 REVERT JUMPDEST PUSH1 0x11 SLOAD PUSH1 0x40 MLOAD DUP3 SWAP1 PUSH32 0x474EA64804364A1E29A4487DDB63C3342A2DD826CCD8ACF48825E680A0E6F20F SWAP1 PUSH1 0x0 SWAP1 LOG3 PUSH1 0x11 SSTORE JUMP JUMPDEST PUSH2 0x1366 PUSH2 0x16C8 JUMP JUMPDEST PUSH1 0x5 SLOAD PUSH1 0x1 PUSH1 0x1 PUSH1 0xA0 SHL SUB SWAP1 DUP2 AND SWAP2 AND EQ PUSH2 0x13B6 JUMPI PUSH1 0x40 DUP1 MLOAD PUSH3 0x461BCD PUSH1 0xE5 SHL DUP2 MSTORE PUSH1 0x20 PUSH1 0x4 DUP3 ADD DUP2 SWAP1 MSTORE PUSH1 0x24 DUP3 ADD MSTORE PUSH1 0x0 DUP1 MLOAD PUSH1 0x20 PUSH2 0x2081 DUP4 CODECOPY DUP2 MLOAD SWAP2 MSTORE PUSH1 0x44 DUP3 ADD MSTORE SWAP1 MLOAD SWAP1 DUP2 SWAP1 SUB PUSH1 0x64 ADD SWAP1 REVERT JUMPDEST PUSH1 0x1 PUSH1 0x1 PUSH1 0xA0 SHL SUB DUP2 AND PUSH2 0x13FB JUMPI PUSH1 0x40 MLOAD PUSH3 0x461BCD PUSH1 0xE5 SHL DUP2 MSTORE PUSH1 0x4 ADD DUP1 DUP1 PUSH1 0x20 ADD DUP3 DUP2 SUB DUP3 MSTORE PUSH1 0x26 DUP2 MSTORE PUSH1 0x20 ADD DUP1 PUSH2 0x1F3B PUSH1 0x26 SWAP2 CODECOPY PUSH1 0x40 ADD SWAP2 POP POP PUSH1 0x40 MLOAD DUP1 SWAP2 SUB SWAP1 REVERT JUMPDEST PUSH1 0x5 SLOAD PUSH1 0x40 MLOAD PUSH1 0x1 PUSH1 0x1 PUSH1 0xA0 SHL SUB DUP1 DUP5 AND SWAP3 AND SWAP1 PUSH32 0x8BE0079C531659141344CD1FD0A4F28419497F9722A3DAAFE3B4186F6B6457E0 SWAP1 PUSH1 0x0 SWAP1 LOG3 PUSH1 0x5 DUP1 SLOAD PUSH1 0x1 PUSH1 0x1 PUSH1 0xA0 SHL SUB NOT AND PUSH1 0x1 PUSH1 0x1 PUSH1 0xA0 SHL SUB SWAP3 SWAP1 SWAP3 AND SWAP2 SWAP1 SWAP2 OR SWAP1 SSTORE JUMP JUMPDEST PUSH1 0x0 DUP1 PUSH1 0x0 DUP1 PUSH1 0x0 DUP1 PUSH1 0x0 DUP1 DUP9 SWAP8 POP PUSH1 0xA PUSH20 0x0 PUSH4 0x17E142D1 SWAP1 SWAP2 DUP11 PUSH1 0x40 MLOAD DUP4 PUSH4 0xFFFFFFFF AND PUSH1 0xE0 SHL DUP2 MSTORE PUSH1 0x4 ADD DUP1 DUP4 DUP2 MSTORE PUSH1 0x20 ADD DUP3 PUSH1 0x1 PUSH1 0x1 PUSH1 0xA0 SHL SUB AND DUP2 MSTORE PUSH1 0x20 ADD SWAP3 POP POP POP PUSH1 0x20 PUSH1 0x40 MLOAD DUP1 DUP4 SUB DUP2 DUP7 DUP1 EXTCODESIZE ISZERO DUP1 ISZERO PUSH2 0x14C9 JUMPI PUSH1 0x0 DUP1 REVERT JUMPDEST POP GAS DELEGATECALL ISZERO DUP1 ISZERO PUSH2 0x14DD JUMPI RETURNDATASIZE PUSH1 0x0 DUP1 RETURNDATACOPY RETURNDATASIZE PUSH1 0x0 REVERT JUMPDEST POP POP POP POP PUSH1 0x40 MLOAD RETURNDATASIZE PUSH1 0x20 DUP2 LT ISZERO PUSH2 0x14F3 JUMPI PUSH1 0x0 DUP1 REVERT JUMPDEST POP MLOAD SWAP7 POP PUSH1 0x0 NOT SWAP6 POP PUSH1 0x0 DUP8 SLT PUSH2 0x1557 JUMPI PUSH1 0xE SLOAD DUP8 GT ISZERO PUSH2 0x1523 JUMPI PUSH1 0xE SLOAD PUSH2 0x151C SWAP1 DUP9 SWAP1 PUSH2 0x1BC0 JUMP JUMPDEST SWAP6 POP PUSH2 0x1557 JUMP JUMPDEST PUSH1 0xE SLOAD PUSH1 0xA SLOAD PUSH1 0x0 SWAP2 LT PUSH2 0x1538 JUMPI PUSH1 0x0 PUSH2 0x1547 JUMP JUMPDEST PUSH1 0xE SLOAD PUSH1 0xA SLOAD PUSH2 0x1547 SWAP2 PUSH2 0x19EF JUMP JUMPDEST SWAP1 POP PUSH2 0x1553 DUP9 DUP3 PUSH2 0x18F6 JUMP JUMPDEST SWAP7 POP POP JUMPDEST PUSH2 0x1560 DUP9 PUSH2 0xE09 JUMP JUMPDEST SWAP5 POP PUSH2 0x156B DUP9 PUSH2 0x880 JUMP JUMPDEST PUSH1 0x1 PUSH1 0x1 PUSH1 0xA0 SHL SUB DUP10 AND PUSH1 0x0 SWAP1 DUP2 MSTORE PUSH1 0x10 PUSH1 0x20 MSTORE PUSH1 0x40 SWAP1 KECCAK256 SLOAD SWAP1 SWAP5 POP SWAP3 POP DUP3 PUSH2 0x1595 JUMPI PUSH1 0x0 PUSH2 0x15A3 JUMP JUMPDEST PUSH1 0x11 SLOAD PUSH2 0x15A3 SWAP1 DUP5 SWAP1 PUSH2 0x1995 JUMP JUMPDEST SWAP2 POP TIMESTAMP DUP3 GT PUSH2 0x15B3 JUMPI PUSH1 0x0 PUSH2 0x15BD JUMP JUMPDEST PUSH2 0x15BD DUP3 TIMESTAMP PUSH2 0x19EF JUMP JUMPDEST SWAP1 POP SWAP2 SWAP4 SWAP6 SWAP8 POP SWAP2 SWAP4 SWAP6 SWAP8 JUMP JUMPDEST PUSH1 0xA SLOAD PUSH1 0x0 SWAP1 DUP2 SWAP1 DUP2 SWAP1 DUP1 PUSH2 0x15EA JUMPI POP POP PUSH1 0xE SLOAD PUSH1 0x0 SWAP3 POP DUP3 SWAP2 POP PUSH2 0x16C1 JUMP JUMPDEST PUSH1 0xE SLOAD PUSH1 0x0 DUP1 GAS SWAP1 POP PUSH1 0x0 DUP1 JUMPDEST DUP10 DUP5 LT DUP1 ISZERO PUSH2 0x1605 JUMPI POP DUP6 DUP3 LT JUMPDEST ISZERO PUSH2 0x16B0 JUMPI PUSH1 0xA SLOAD PUSH1 0x1 SWAP1 SWAP6 ADD SWAP5 DUP6 LT PUSH2 0x161E JUMPI PUSH1 0x0 SWAP5 POP JUMPDEST PUSH1 0x0 PUSH1 0xA PUSH1 0x0 ADD DUP7 DUP2 SLOAD DUP2 LT PUSH2 0x1630 JUMPI INVALID JUMPDEST PUSH1 0x0 SWAP2 DUP3 MSTORE PUSH1 0x20 DUP1 DUP4 KECCAK256 SWAP1 SWAP2 ADD SLOAD PUSH1 0x1 PUSH1 0x1 PUSH1 0xA0 SHL SUB AND DUP1 DUP4 MSTORE PUSH1 0x10 SWAP1 SWAP2 MSTORE PUSH1 0x40 SWAP1 SWAP2 KECCAK256 SLOAD SWAP1 SWAP2 POP PUSH2 0x1661 SWAP1 PUSH2 0x1BF2 JUMP JUMPDEST ISZERO PUSH2 0x167D JUMPI PUSH2 0x1671 DUP2 PUSH1 0x1 PUSH2 0xF4E JUMP JUMPDEST ISZERO PUSH2 0x167D JUMPI PUSH1 0x1 SWAP1 SWAP2 ADD SWAP1 JUMPDEST PUSH1 0x1 SWAP1 SWAP3 ADD SWAP2 PUSH1 0x0 GAS SWAP1 POP DUP1 DUP6 GT ISZERO PUSH2 0x16A7 JUMPI PUSH2 0x16A4 PUSH2 0x169D DUP7 DUP4 PUSH2 0x19EF JUMP JUMPDEST DUP8 SWAP1 PUSH2 0x1995 JUMP JUMPDEST SWAP6 POP JUMPDEST SWAP4 POP PUSH2 0x15F7 SWAP1 POP JUMP JUMPDEST PUSH1 0xE DUP6 SWAP1 SSTORE SWAP1 SWAP8 POP SWAP6 POP SWAP2 SWAP4 POP POP POP POP JUMPDEST SWAP2 SWAP4 SWAP1 SWAP3 POP JUMP JUMPDEST CALLER SWAP1 JUMP JUMPDEST PUSH1 0x1 PUSH1 0x1 PUSH1 0xA0 SHL SUB DUP4 AND PUSH2 0x1711 JUMPI PUSH1 0x40 MLOAD PUSH3 0x461BCD PUSH1 0xE5 SHL DUP2 MSTORE PUSH1 0x4 ADD DUP1 DUP1 PUSH1 0x20 ADD DUP3 DUP2 SUB DUP3 MSTORE PUSH1 0x24 DUP2 MSTORE PUSH1 0x20 ADD DUP1 PUSH2 0x20C2 PUSH1 0x24 SWAP2 CODECOPY PUSH1 0x40 ADD SWAP2 POP POP PUSH1 0x40 MLOAD DUP1 SWAP2 SUB SWAP1 REVERT JUMPDEST PUSH1 0x1 PUSH1 0x1 PUSH1 0xA0 SHL SUB DUP3 AND PUSH2 0x1756 JUMPI PUSH1 0x40 MLOAD PUSH3 0x461BCD PUSH1 0xE5 SHL DUP2 MSTORE PUSH1 0x4 ADD DUP1 DUP1 PUSH1 0x20 ADD DUP3 DUP2 SUB DUP3 MSTORE PUSH1 0x22 DUP2 MSTORE PUSH1 0x20 ADD DUP1 PUSH2 0x1F61 PUSH1 0x22 SWAP2 CODECOPY PUSH1 0x40 ADD SWAP2 POP POP PUSH1 0x40 MLOAD DUP1 SWAP2 SUB SWAP1 REVERT JUMPDEST PUSH1 0x1 PUSH1 0x1 PUSH1 0xA0 SHL SUB DUP1 DUP5 AND PUSH1 0x0 DUP2 DUP2 MSTORE PUSH1 0x1 PUSH1 0x20 SWAP1 DUP2 MSTORE PUSH1 0x40 DUP1 DUP4 KECCAK256 SWAP5 DUP8 AND DUP1 DUP5 MSTORE SWAP5 DUP3 MSTORE SWAP2 DUP3 SWAP1 KECCAK256 DUP6 SWAP1 SSTORE DUP2 MLOAD DUP6 DUP2 MSTORE SWAP2 MLOAD PUSH32 0x8C5BE1E5EBEC7D5BD14F71427D1E84F3DD0314C0F7B2291E5B200AC8C7C3B925 SWAP3 DUP2 SWAP1 SUB SWAP1 SWAP2 ADD SWAP1 LOG3 POP POP POP JUMP JUMPDEST PUSH1 0x40 MLOAD PUSH3 0x461BCD PUSH1 0xE5 SHL DUP2 MSTORE PUSH1 0x4 ADD DUP1 DUP1 PUSH1 0x20 ADD DUP3 DUP2 SUB DUP3 MSTORE PUSH1 0x2D DUP2 MSTORE PUSH1 0x20 ADD DUP1 PUSH2 0x1F0E PUSH1 0x2D SWAP2 CODECOPY PUSH1 0x40 ADD SWAP2 POP POP PUSH1 0x40 MLOAD DUP1 SWAP2 SUB SWAP1 REVERT JUMPDEST PUSH1 0x0 DUP2 DUP5 DUP5 GT ISZERO PUSH2 0x187E JUMPI PUSH1 0x40 MLOAD PUSH3 0x461BCD PUSH1 0xE5 SHL DUP2 MSTORE PUSH1 0x4 ADD DUP1 DUP1 PUSH1 0x20 ADD DUP3 DUP2 SUB DUP3 MSTORE DUP4 DUP2 DUP2 MLOAD DUP2 MSTORE PUSH1 0x20 ADD SWAP2 POP DUP1 MLOAD SWAP1 PUSH1 0x20 ADD SWAP1 DUP1 DUP4 DUP4 PUSH1 0x0 JUMPDEST DUP4 DUP2 LT ISZERO PUSH2 0x1843 JUMPI DUP2 DUP2 ADD MLOAD DUP4 DUP3 ADD MSTORE PUSH1 0x20 ADD PUSH2 0x182B JUMP JUMPDEST POP POP POP POP SWAP1 POP SWAP1 DUP2 ADD SWAP1 PUSH1 0x1F AND DUP1 ISZERO PUSH2 0x1870 JUMPI DUP1 DUP3 SUB DUP1 MLOAD PUSH1 0x1 DUP4 PUSH1 0x20 SUB PUSH2 0x100 EXP SUB NOT AND DUP2 MSTORE PUSH1 0x20 ADD SWAP2 POP JUMPDEST POP SWAP3 POP POP POP PUSH1 0x40 MLOAD DUP1 SWAP2 SUB SWAP1 REVERT JUMPDEST POP POP POP SWAP1 SUB SWAP1 JUMP JUMPDEST PUSH1 0x0 DUP3 PUSH2 0x1895 JUMPI POP PUSH1 0x0 PUSH2 0x7D5 JUMP JUMPDEST DUP3 DUP3 MUL DUP3 DUP5 DUP3 DUP2 PUSH2 0x18A2 JUMPI INVALID JUMPDEST DIV EQ PUSH2 0x18DF JUMPI PUSH1 0x40 MLOAD PUSH3 0x461BCD PUSH1 0xE5 SHL DUP2 MSTORE PUSH1 0x4 ADD DUP1 DUP1 PUSH1 0x20 ADD DUP3 DUP2 SUB DUP3 MSTORE PUSH1 0x21 DUP2 MSTORE PUSH1 0x20 ADD DUP1 PUSH2 0x1FEC PUSH1 0x21 SWAP2 CODECOPY PUSH1 0x40 ADD SWAP2 POP POP PUSH1 0x40 MLOAD DUP1 SWAP2 SUB SWAP1 REVERT JUMPDEST SWAP4 SWAP3 POP POP POP JUMP JUMPDEST PUSH1 0x0 DUP2 DUP2 DUP2 SLT ISZERO PUSH2 0x7D5 JUMPI PUSH1 0x0 DUP1 REVERT JUMPDEST PUSH1 0x0 DUP3 DUP3 ADD DUP2 DUP4 SLT DUP1 ISZERO SWAP1 PUSH2 0x190B JUMPI POP DUP4 DUP2 SLT ISZERO JUMPDEST DUP1 PUSH2 0x1920 JUMPI POP PUSH1 0x0 DUP4 SLT DUP1 ISZERO PUSH2 0x1920 JUMPI POP DUP4 DUP2 SLT JUMPDEST PUSH2 0x18DF JUMPI PUSH1 0x0 DUP1 REVERT JUMPDEST PUSH1 0x0 DUP1 DUP3 SLT ISZERO PUSH2 0x1938 JUMPI PUSH1 0x0 DUP1 REVERT JUMPDEST POP SWAP1 JUMP JUMPDEST PUSH1 0x0 PUSH2 0x1947 DUP4 PUSH2 0xC63 JUMP JUMPDEST SWAP1 POP DUP1 DUP3 GT ISZERO PUSH2 0x196F JUMPI PUSH1 0x0 PUSH2 0x195D DUP4 DUP4 PUSH2 0x19EF JUMP JUMPDEST SWAP1 POP PUSH2 0x1969 DUP5 DUP3 PUSH2 0x1C19 JUMP JUMPDEST POP PUSH2 0x1236 JUMP JUMPDEST DUP1 DUP3 LT ISZERO PUSH2 0x1236 JUMPI PUSH1 0x0 PUSH2 0x1983 DUP3 DUP5 PUSH2 0x19EF JUMP JUMPDEST SWAP1 POP PUSH2 0x198F DUP5 DUP3 PUSH2 0x1C7D JUMP JUMPDEST POP POP POP POP JUMP JUMPDEST PUSH1 0x0 DUP3 DUP3 ADD DUP4 DUP2 LT ISZERO PUSH2 0x18DF JUMPI PUSH1 0x40 DUP1 MLOAD PUSH3 0x461BCD PUSH1 0xE5 SHL DUP2 MSTORE PUSH1 0x20 PUSH1 0x4 DUP3 ADD MSTORE PUSH1 0x1B PUSH1 0x24 DUP3 ADD MSTORE PUSH32 0x536166654D6174683A206164646974696F6E206F766572666C6F770000000000 PUSH1 0x44 DUP3 ADD MSTORE SWAP1 MLOAD SWAP1 DUP2 SWAP1 SUB PUSH1 0x64 ADD SWAP1 REVERT JUMPDEST PUSH1 0x0 PUSH2 0x18DF DUP4 DUP4 PUSH1 0x40 MLOAD DUP1 PUSH1 0x40 ADD PUSH1 0x40 MSTORE DUP1 PUSH1 0x1E DUP2 MSTORE PUSH1 0x20 ADD PUSH32 0x536166654D6174683A207375627472616374696F6E206F766572666C6F770000 DUP2 MSTORE POP PUSH2 0x17EF JUMP JUMPDEST PUSH1 0x0 DUP1 PUSH2 0x1A3D DUP4 PUSH2 0xE09 JUMP JUMPDEST SWAP1 POP DUP1 ISZERO PUSH2 0x1BB7 JUMPI PUSH1 0x1 PUSH1 0x1 PUSH1 0xA0 SHL SUB DUP4 AND PUSH1 0x0 SWAP1 DUP2 MSTORE PUSH1 0x8 PUSH1 0x20 MSTORE PUSH1 0x40 SWAP1 KECCAK256 SLOAD PUSH2 0x1A68 SWAP1 DUP3 PUSH2 0x1995 JUMP JUMPDEST PUSH1 0x1 PUSH1 0x1 PUSH1 0xA0 SHL SUB DUP5 AND PUSH1 0x0 DUP2 DUP2 MSTORE PUSH1 0x8 PUSH1 0x20 SWAP1 DUP2 MSTORE PUSH1 0x40 SWAP2 DUP3 SWAP1 KECCAK256 SWAP4 SWAP1 SWAP4 SSTORE DUP1 MLOAD DUP5 DUP2 MSTORE SWAP1 MLOAD SWAP2 SWAP3 PUSH32 0xEE503BEE2BB6A87E57BC57DB795F98137327401A0E7B7CE42E37926CC1A9CA4D SWAP3 SWAP2 DUP3 SWAP1 SUB ADD SWAP1 LOG2 PUSH1 0x0 PUSH32 0x0 PUSH1 0x1 PUSH1 0x1 PUSH1 0xA0 SHL SUB AND PUSH4 0xA9059CBB DUP6 DUP5 PUSH1 0x40 MLOAD DUP4 PUSH4 0xFFFFFFFF AND PUSH1 0xE0 SHL DUP2 MSTORE PUSH1 0x4 ADD DUP1 DUP4 PUSH1 0x1 PUSH1 0x1 PUSH1 0xA0 SHL SUB AND DUP2 MSTORE PUSH1 0x20 ADD DUP3 DUP2 MSTORE PUSH1 0x20 ADD SWAP3 POP POP POP PUSH1 0x20 PUSH1 0x40 MLOAD DUP1 DUP4 SUB DUP2 PUSH1 0x0 DUP8 DUP1 EXTCODESIZE ISZERO DUP1 ISZERO PUSH2 0x1B33 JUMPI PUSH1 0x0 DUP1 REVERT JUMPDEST POP GAS CALL ISZERO DUP1 ISZERO PUSH2 0x1B47 JUMPI RETURNDATASIZE PUSH1 0x0 DUP1 RETURNDATACOPY RETURNDATASIZE PUSH1 0x0 REVERT JUMPDEST POP POP POP POP PUSH1 0x40 MLOAD RETURNDATASIZE PUSH1 0x20 DUP2 LT ISZERO PUSH2 0x1B5D JUMPI PUSH1 0x0 DUP1 REVERT JUMPDEST POP MLOAD SWAP1 POP DUP1 PUSH2 0x1BAF JUMPI PUSH1 0x1 PUSH1 0x1 PUSH1 0xA0 SHL SUB DUP5 AND PUSH1 0x0 SWAP1 DUP2 MSTORE PUSH1 0x8 PUSH1 0x20 MSTORE PUSH1 0x40 SWAP1 KECCAK256 SLOAD PUSH2 0x1B89 SWAP1 DUP4 PUSH2 0x19EF JUMP JUMPDEST PUSH1 0x1 PUSH1 0x1 PUSH1 0xA0 SHL SUB DUP6 AND PUSH1 0x0 SWAP1 DUP2 MSTORE PUSH1 0x8 PUSH1 0x20 MSTORE PUSH1 0x40 DUP2 KECCAK256 SWAP2 SWAP1 SWAP2 SSTORE SWAP3 POP PUSH2 0x8DA SWAP2 POP POP JUMP JUMPDEST POP SWAP1 POP PUSH2 0x8DA JUMP JUMPDEST POP PUSH1 0x0 SWAP3 SWAP2 POP POP JUMP JUMPDEST PUSH1 0x0 DUP2 DUP4 SUB DUP2 DUP4 SLT DUP1 ISZERO SWAP1 PUSH2 0x1BD5 JUMPI POP DUP4 DUP2 SGT ISZERO JUMPDEST DUP1 PUSH2 0x1920 JUMPI POP PUSH1 0x0 DUP4 SLT DUP1 ISZERO PUSH2 0x1920 JUMPI POP DUP4 DUP2 SGT PUSH2 0x18DF JUMPI PUSH1 0x0 DUP1 REVERT JUMPDEST PUSH1 0x0 TIMESTAMP DUP3 GT ISZERO PUSH2 0x1C04 JUMPI POP PUSH1 0x0 PUSH2 0x8DA JUMP JUMPDEST PUSH1 0x11 SLOAD PUSH2 0x1C11 TIMESTAMP DUP5 PUSH2 0x19EF JUMP JUMPDEST LT ISZERO SWAP3 SWAP2 POP POP JUMP JUMPDEST PUSH2 0x1C23 DUP3 DUP3 PUSH2 0x1CC1 JUMP JUMPDEST PUSH2 0x1C5D PUSH2 0x1C3E PUSH2 0x8BF DUP4 PUSH1 0x6 SLOAD PUSH2 0x1886 SWAP1 SWAP2 SWAP1 PUSH4 0xFFFFFFFF AND JUMP JUMPDEST PUSH1 0x1 PUSH1 0x1 PUSH1 0xA0 SHL SUB DUP5 AND PUSH1 0x0 SWAP1 DUP2 MSTORE PUSH1 0x7 PUSH1 0x20 MSTORE PUSH1 0x40 SWAP1 KECCAK256 SLOAD SWAP1 PUSH2 0x1BC0 JUMP JUMPDEST PUSH1 0x1 PUSH1 0x1 PUSH1 0xA0 SHL SUB SWAP1 SWAP3 AND PUSH1 0x0 SWAP1 DUP2 MSTORE PUSH1 0x7 PUSH1 0x20 MSTORE PUSH1 0x40 SWAP1 KECCAK256 SWAP2 SWAP1 SWAP2 SSTORE POP JUMP JUMPDEST PUSH2 0x1C87 DUP3 DUP3 PUSH2 0x1DB1 JUMP JUMPDEST PUSH2 0x1C5D PUSH2 0x1CA2 PUSH2 0x8BF DUP4 PUSH1 0x6 SLOAD PUSH2 0x1886 SWAP1 SWAP2 SWAP1 PUSH4 0xFFFFFFFF AND JUMP JUMPDEST PUSH1 0x1 PUSH1 0x1 PUSH1 0xA0 SHL SUB DUP5 AND PUSH1 0x0 SWAP1 DUP2 MSTORE PUSH1 0x7 PUSH1 0x20 MSTORE PUSH1 0x40 SWAP1 KECCAK256 SLOAD SWAP1 PUSH2 0x18F6 JUMP JUMPDEST PUSH1 0x1 PUSH1 0x1 PUSH1 0xA0 SHL SUB DUP3 AND PUSH2 0x1D1C JUMPI PUSH1 0x40 DUP1 MLOAD PUSH3 0x461BCD PUSH1 0xE5 SHL DUP2 MSTORE PUSH1 0x20 PUSH1 0x4 DUP3 ADD MSTORE PUSH1 0x1F PUSH1 0x24 DUP3 ADD MSTORE PUSH32 0x45524332303A206D696E7420746F20746865207A65726F206164647265737300 PUSH1 0x44 DUP3 ADD MSTORE SWAP1 MLOAD SWAP1 DUP2 SWAP1 SUB PUSH1 0x64 ADD SWAP1 REVERT JUMPDEST PUSH2 0x1D28 PUSH1 0x0 DUP4 DUP4 PUSH2 0x1236 JUMP JUMPDEST PUSH1 0x2 SLOAD PUSH2 0x1D35 SWAP1 DUP3 PUSH2 0x1995 JUMP JUMPDEST PUSH1 0x2 SSTORE PUSH1 0x1 PUSH1 0x1 PUSH1 0xA0 SHL SUB DUP3 AND PUSH1 0x0 SWAP1 DUP2 MSTORE PUSH1 0x20 DUP2 SWAP1 MSTORE PUSH1 0x40 SWAP1 KECCAK256 SLOAD PUSH2 0x1D5B SWAP1 DUP3 PUSH2 0x1995 JUMP JUMPDEST PUSH1 0x1 PUSH1 0x1 PUSH1 0xA0 SHL SUB DUP4 AND PUSH1 0x0 DUP2 DUP2 MSTORE PUSH1 0x20 DUP2 DUP2 MSTORE PUSH1 0x40 DUP1 DUP4 KECCAK256 SWAP5 SWAP1 SWAP5 SSTORE DUP4 MLOAD DUP6 DUP2 MSTORE SWAP4 MLOAD SWAP3 SWAP4 SWAP2 SWAP3 PUSH32 0xDDF252AD1BE2C89B69C2B068FC378DAA952BA7F163C4A11628F55A4DF523B3EF SWAP3 DUP2 SWAP1 SUB SWAP1 SWAP2 ADD SWAP1 LOG3 POP POP JUMP JUMPDEST PUSH1 0x1 PUSH1 0x1 PUSH1 0xA0 SHL SUB DUP3 AND PUSH2 0x1DF6 JUMPI PUSH1 0x40 MLOAD PUSH3 0x461BCD PUSH1 0xE5 SHL DUP2 MSTORE PUSH1 0x4 ADD DUP1 DUP1 PUSH1 0x20 ADD DUP3 DUP2 SUB DUP3 MSTORE PUSH1 0x21 DUP2 MSTORE PUSH1 0x20 ADD DUP1 PUSH2 0x20A1 PUSH1 0x21 SWAP2 CODECOPY PUSH1 0x40 ADD SWAP2 POP POP PUSH1 0x40 MLOAD DUP1 SWAP2 SUB SWAP1 REVERT JUMPDEST PUSH2 0x1E02 DUP3 PUSH1 0x0 DUP4 PUSH2 0x1236 JUMP JUMPDEST PUSH2 0x1E3F DUP2 PUSH1 0x40 MLOAD DUP1 PUSH1 0x60 ADD PUSH1 0x40 MSTORE DUP1 PUSH1 0x22 DUP2 MSTORE PUSH1 0x20 ADD PUSH2 0x1EEC PUSH1 0x22 SWAP2 CODECOPY PUSH1 0x1 PUSH1 0x1 PUSH1 0xA0 SHL SUB DUP6 AND PUSH1 0x0 SWAP1 DUP2 MSTORE PUSH1 0x20 DUP2 SWAP1 MSTORE PUSH1 0x40 SWAP1 KECCAK256 SLOAD SWAP2 SWAP1 PUSH2 0x17EF JUMP JUMPDEST PUSH1 0x1 PUSH1 0x1 PUSH1 0xA0 SHL SUB DUP4 AND PUSH1 0x0 SWAP1 DUP2 MSTORE PUSH1 0x20 DUP2 SWAP1 MSTORE PUSH1 0x40 SWAP1 KECCAK256 SSTORE PUSH1 0x2 SLOAD PUSH2 0x1E65 SWAP1 DUP3 PUSH2 0x19EF JUMP JUMPDEST PUSH1 0x2 SSTORE PUSH1 0x40 DUP1 MLOAD DUP3 DUP2 MSTORE SWAP1 MLOAD PUSH1 0x0 SWAP2 PUSH1 0x1 PUSH1 0x1 PUSH1 0xA0 SHL SUB DUP6 AND SWAP2 PUSH32 0xDDF252AD1BE2C89B69C2B068FC378DAA952BA7F163C4A11628F55A4DF523B3EF SWAP2 DUP2 SWAP1 SUB PUSH1 0x20 ADD SWAP1 LOG3 POP POP JUMP INVALID 0x4E MSIZE NUMBER COINBASE 0x4B GASLIMIT 0x5F DIFFICULTY PUSH10 0x766964656E645F547261 PUSH4 0x6B65723A KECCAK256 NUMBER PUSH2 0x6E6E PUSH16 0x742075706461746520636C61696D5761 PUSH10 0x7420746F2073616D6520 PUSH23 0x616C756545524332303A206275726E20616D6F756E7420 PUSH6 0x786365656473 KECCAK256 PUSH3 0x616C61 PUSH15 0x63654E5943414B455F446976696465 PUSH15 0x645F547261636B65723A204E6F2074 PUSH19 0x616E736665727320616C6C6F7765644F776E61 PUSH3 0x6C653A KECCAK256 PUSH15 0x6577206F776E657220697320746865 KECCAK256 PUSH27 0x65726F206164647265737345524332303A20617070726F76652074 PUSH16 0x20746865207A65726F20616464726573 PUSH20 0x4E5943414B455F4469766964656E645F54726163 PUSH12 0x65723A207769746864726177 DIFFICULTY PUSH10 0x766964656E6420646973 PUSH2 0x626C PUSH6 0x642E20557365 KECCAK256 PUSH21 0x68652027636C61696D272066756E6374696F6E206F PUSH15 0x20746865206D61696E204E5943414B GASLIMIT KECCAK256 PUSH4 0x6F6E7472 PUSH2 0x6374 0x2E MSTORE8 PUSH2 0x6665 0x4D PUSH2 0x7468 GASPRICE KECCAK256 PUSH14 0x756C7469706C69636174696F6E20 PUSH16 0x766572666C6F774E5943414B455F4469 PUSH23 0x6964656E645F547261636B65723A20636C61696D576169 PUSH21 0x206D757374206265207570646174656420746F2062 PUSH6 0x747765656E20 BALANCE KECCAK256 PUSH2 0x6E64 KECCAK256 ORIGIN CALLVALUE KECCAK256 PUSH9 0x6F7572734552433230 GASPRICE KECCAK256 PUSH21 0x72616E7366657220616D6F756E7420657863656564 PUSH20 0x20616C6C6F77616E63654F776E61626C653A2063 PUSH2 0x6C6C PUSH6 0x72206973206E PUSH16 0x7420746865206F776E65724552433230 GASPRICE KECCAK256 PUSH3 0x75726E KECCAK256 PUSH7 0x726F6D20746865 KECCAK256 PUSH27 0x65726F206164647265737345524332303A20617070726F76652066 PUSH19 0x6F6D20746865207A65726F2061646472657373 GASLIMIT MSTORE NUMBER ORIGIN ADDRESS GASPRICE KECCAK256 PUSH5 0x6563726561 PUSH20 0x656420616C6C6F77616E63652062656C6F77207A PUSH6 0x726FA2646970 PUSH7 0x7358221220A9B1 ADDRESS SWAP2 SWAP13 0xD4 CALLER 0xFB 0xD9 0x4C STATICCALL 0xC0 PUSH32 0x88BC8325B0A1AFE2615553DB4E524E01AEA81864736F6C634300060C00330000 "
        },
        "methodIdentifiers": {
          "CAKE()": "4ca6ef28",
          "accumulativeDividendOf(address)": "27ce0147",
          "allowance(address,address)": "dd62ed3e",
          "approve(address,uint256)": "095ea7b3",
          "balanceOf(address)": "70a08231",
          "claimWait()": "6f2789ec",
          "decimals()": "313ce567",
          "decreaseAllowance(address,uint256)": "a457c2d7",
          "distributeCAKEDividends(uint256)": "ba72a955",
          "dividendOf(address)": "91b89fba",
          "excludeFromDividends(address)": "31e79db0",
          "excludedFromDividends(address)": "4e7b827f",
          "getAccount(address)": "fbcbc0f1",
          "getAccountAtIndex(uint256)": "5183d6fd",
          "getLastProcessedIndex()": "e7841ec0",
          "getNumberOfTokenHolders()": "09bbedde",
          "increaseAllowance(address,uint256)": "39509351",
          "lastClaimTimes(address)": "226cfa3d",
          "lastProcessedIndex()": "3009a609",
          "minimumTokenBalanceForDividends()": "be10b614",
          "name()": "06fdde03",
          "owner()": "8da5cb5b",
          "process(uint256)": "ffb2c479",
          "processAccount(address,bool)": "bc4c4b37",
          "renounceOwnership()": "715018a6",
          "setBalance(address,uint256)": "e30443bc",
          "symbol()": "95d89b41",
          "totalDividendsDistributed()": "85a6b3ae",
          "totalSupply()": "18160ddd",
          "transfer(address,uint256)": "a9059cbb",
          "transferFrom(address,address,uint256)": "23b872dd",
          "transferOwnership(address)": "f2fde38b",
          "updateClaimWait(uint256)": "e98030c7",
          "withdrawDividend()": "6a474002",
          "withdrawableDividendOf(address)": "a8b9d240",
          "withdrawnDividendOf(address)": "aafd847a"
        }
      }
    }
  }
}